:020000040800F2
:1000000080FE00206501000861130008A1120008AD
:100010005D130008B10800085B3B00080000000009
:10002000000000000000000000000000893300080C
:10003000B508000800000000CB0100089534000856
:100040007F0100087F0100087F0100087F01000890
:100050007F0100087F0100087F0100087F01000880
:100060007F0100087F0100087F0100087F01000870
:100070007F0100087F0100087F0100087F01000860
:100080007F0100087F0100087F0100087F01000850
:100090007F0100087F0100087F0100087F01000840
:1000A0007F0100087F0100087F0100087F01000830
:1000B0007F0100087F0100087F0100087F01000820
:1000C0007F0100087F0100087F0100087F01000810
:1000D0007F01000885370008893700087F01000884
:1000E0007F0100087F0100087F0100080000000078
:1000F0000000000000000000000000000000000000
:100100000000000000000000DD3500087F0100084D
:100110007F0100087F0100087F0100087F010008BF
:100120007F0100087F0100087F0100087F010008AF
:100130007F010008A90A00087F0100087F0100086C
:100140007F0100087F0100087F0100087F0100088F
:10015000DFF80CD000F0B4FA00480047555A000808
:1001600080FE00200648804706480047FEE7FEE77D
:10017000FEE7FEE7FEE7FEE7FEE7FEE7FEE7FEE757
:10018000BD34000851010008EFF3108072B67047CB
:1001900080F3108870471D484FF0FF010170002068
:1001A00080F309881A48012101701A484FF08051E4
:1001B000016062B6FEE717484FF08051016070475A
:1001C00014484FF080510160704772B6EFF3098018
:1001D00028B1203880E8F00F0F490968086000B5A1
:1001E0000E4880475DF804EB0D480E490A7802700E
:1001F00009480D490A680260106890E8F00F203045
:1002000080F309884EF0040E62B6704722ED00E0DC
:10021000B600002004ED00E0BC000020052400082A
:10022000AB000020AC000020C400002072B6704774
:1002300062B67047EFF3108072B6704780F3108893
:100240007047B0FA80F0704790FAA0F0704730BF66
:10025000704720BF704740EA01039B0703D009E0C5
:1002600008C9121F08C0042AFAD203E011F8013BA2
:1002700000F8013B521EF9D27047D2B201E000F8FB
:10028000012B491EFBD270470022F6E710B5044649
:100290000846114602462046FFF7EFFF204610BDF4
:1002A00000F0004230F000400DD0C10D01F560714A
:1002B00042EA01510022C0F31600520742EAD0027E
:1002C00040071143704700200146704730B50B4688
:1002D000014600202022012409E021FA02F59D4276
:1002E00005D303FA02F5491B04FA02F52844151E4A
:1002F000A2F10102F1DC30BD2DE9F05F05460020DE
:1003000092469B4688460646814640241DE0284684
:1003100041464746224600F0F4F9B0EB0A00524647
:100320005B4671EB0B0110D310461946224600F0D4
:10033000D9F92D1A67EB01084F462246012000210A
:1003400000F0D0F917EB00094E41201EA4F1010482
:10035000DDDC484631462A464346BDE8F09F2DE99C
:10036000FE4F074681EA0300C00F0E46019021F0C0
:10037000004123F00044B81AA14105D23846314665
:1003800017461E460B46024623F00040104304D198
:100390003846314603B0BDE8F08F350DC5F30A008D
:1003A000C3F30A510290401A0090402867DAC3F361
:1003B000130040F4801B0198924620B10023D2EB39
:1003C000030A63EB0B0B00985946C0F140025046FC
:1003D00000F088F980460C4650465946009A00F0D5
:1003E000A0F9C0197141EF1785EA11533B433FD083
:1003F000019A4AB3009A012A11DC0022801A61EBAB
:1004000005514FF0004303EA0555CDE9002580185A
:1004100041F580114246234600F0A2F9BAE72E05C5
:100420000025401B61EB0601401941F580120018C0
:1004300052412818A6F5001343EB020140EAD4709C
:1004400018EB0808644113E064084FEA38084FF0DD
:10045000000244EAC0744FEA0553801A61EB0301BD
:10046000801841F5801149084FEA30008018594141
:100470004246234603B0BDE8F04F00F064B901984E
:10048000012240000023D0EB020263EBE0730198ED
:100490004FEAE074381A66EB0401EBE783F000439F
:1004A0005DE781F000415AE72DE9FE4F81EA030440
:1004B00021F0004504F0004423F000414FF0000A11
:1004C000009450EA050302D052EA010304D100204F
:1004D000014603B0BDE8F08FC1F30A53C5F30A54D7
:1004E0002344A3F2F3330193A0FB02B3C5F3130536
:1004F00045F4801CC1F3130141F480180CFB023356
:1005000000FB083E810A930A41EA8C5143EA885372
:10051000A1FB03474FEA9C2505FB03734FEA98268E
:1005200001FB06373D05260545EA1435BBEB060100
:100530006EEB0503850E920E45EA8C1542EA881291
:10054000A5FB0206261E67EB00070C0D44EA0334E8
:10055000A61947EB1350C1F313044FF000031946DB
:10056000E5FB02014FEA033545EA1455019B4FEACA
:100570000432009CA3F10C03CDE900A445EA060572
:1005800002932B4600F0ECF8A3E72DE9F04D81EA49
:10059000030404F0004B21F0004714464FF0000A1A
:1005A00023F0004150EA070220D054EA01021DD096
:1005B000C1F30A550246C1F31300C7F30A56C7F345
:1005C000130340F4801143F48013A6EB0508101BBD
:1005D000D64608F2FD3873EB010002D308F101089A
:1005E00001E092185B41B8F1000F03DA00200146E8
:1005F000BDE8F08D00204FF48015064607460EE05A
:10060000B2EB040C73EB010C04D3121B064363EB37
:1006100001032F436D084FEA300092185B4150EA06
:10062000050CEDD152EA030012D082EA040083EAFD
:100630000105284303D100224FF0004308E0101BBE
:100640008B4102D20122002302E06FF0010253101D
:100650001AEB060047EB085110EB0A0041EB0B01C7
:10066000BDE8F04D00F06FB8C1F30A52C1F31301B9
:1006700040F2FF3341F480119A4202DA0020014631
:10068000704740F233439A42A2F2334202DC5242B4
:1006900000F037B800F026B830B5002904DB4FF081
:1006A0000044404264EB0101002B04DB4FF00044A6
:1006B000524264EB0303994208BF904230BD0000F0
:1006C000064C074D06E0E06840F0010394E807009F
:1006D00098471034AC42F6D3FFF73EFD9C7F0008EC
:1006E000BC7F0008202A04DB203A00FA02F1002037
:1006F00070479140C2F1200320FA03F31943904060
:100700007047202A04DB203A21FA02F000217047CA
:1007100021FA02F3D040C2F1200291400843194669
:100720007047202A06DBCB17203A41FA02F043EA51
:10073000E07306E041FA02F3D040C2F1200291409A
:1007400008431946704710B5002B08DA401C41F1E8
:10075000000192185B411A4301D120F0010010BD45
:100760002DE9FF4D934611B1B1FA81F202E0B0FAE2
:1007700080F220329246FFF7B5FF039A074688467B
:1007800040EA0B0011435B46084304D1384641461A
:1007900004B0BDE8F08D114653EA020016D0CAF14C
:1007A00040025846FFF7ADFF04460D464FF00106E4
:1007B000584652460399FFF795FF084300D100269B
:1007C000344345EAE675274345EA08080E984FF09A
:1007D0000005A0EB0A014FEAD7200A314FEA475340
:1007E0002A4640EA48504FEAD82402D50020014664
:1007F000CEE7281844EB0151DDE90C45001904B09F
:100800006941BDE8F04D9EE770B501EB020410F8B8
:10081000015B15F0070301D110F8013B2A1106D145
:1008200010F8012B03E010F8016B01F8016B5B1E5F
:10083000F9D12B0705D40023521E0FD401F8013B38
:10084000FAE710F8013B02F10202A1EB030303E017
:1008500013F8015B01F8015B521EF9D5A142D6D312
:10086000002070BD10B500BF0623034A00210348D5
:1008700001F0C4FB044610BD9C06002089790008E5
:10088000704710B5FFF7EEFF10BD7047704702F0DC
:100890001FF801F087FBFFF7F4FF00BF00231A46A3
:1008A0000121184601F0F2FDF8E7704770477047E4
:1008B00000BFFEE7704770B504460A20B4FBF0F5B0
:1008C000284601F0A3FD70BD014948617047000052
:1008D0000090024029B1064AD2690243044BDA6112
:1008E00004E0034AD2698243014BDA617047000099
:1008F0000090024030B10749896941F00201054A80
:10090000916105E00349896921F00201014A916181
:10091000704700000090024030B50C46134600219D
:10092000104D286000BF18E000EB01124FF00045A9
:10093000156044F2F0555560C1EB411505EB81158A
:1009400004EB051595605D1E8D4204D900EB011581
:100950001035D56000E0D060491C9942E4D3024DC7
:10096000E86030BD6C0000200090024021B1426878
:1009700022F00042426003E0426842F000424260DE
:100980007047000030B10749896941F40051054AB8
:10099000916105E00349896921F40051014A91619F
:1009A000704700000090024030B50C46134600210D
:1009B0000F4D286000BF15E000EB01124FF48015C9
:1009C0001560C1EB411505EB811504EB051595602C
:1009D0005D1E8D4204D900EB01151035D56000E095
:1009E000D060491C9942E7D3024D286130BD000018
:1009F000680000200090024010B50121880302F039
:100A000095FB00214FF4804002F090FB10BD0021C7
:100A1000014600E0491E0029FCD170470348806967
:100A200040F4801001498861704700000090024046
:100A30000148006880687047680000200146086827
:100A4000C0F30D407047000000B500220F48006859
:100A5000006810F0004F16D10C480068006810F4D0
:100A6000004F10D109480068006810F4807F0AD058
:100A700006480068006810F4007F04D0034800684E
:100A8000FFF7DCFF0246104600BD00006C000020AE
:100A900000200449096811F0010F01D0012000E095
:100AA000002070470090024010B5FFF76DFB044630
:100AB0000C480078401C0B4908702046FFF768FB83
:100AC00002E0094804F04AFEFFF7BEFF0028F8D113
:100AD0004020FFF7F9FE4FF48030FFF7F5FE00F0FD
:100AE000CDFD10BDA900002030D900202DE9F04730
:100AF00086B0044688464FF000090025AA46854F77
:100B000000268548056925F01C0501A802F03EFB7A
:100B1000029F8248874205D38148874202D245F02E
:100B2000080509E07E48874205D37A48874202D209
:100B300045F00C0500E000BF774805614FF4004226
:100B40000021404600F054FA18B9002006B0BDE874
:100B5000F0877448FFF75BFF2068002844D000BF8F
:100B6000761C0121404600F025F910F0040F02D157
:100B70006D488642F4D36C48864201D10020E5E7F7
:100B800000264FF480520021404600F031FA08B9A7
:100B90000020DBE700BF761C0121404600F00AF987
:100BA00010F0200F02D160488642F4D35E4886429E
:100BB00001D10020CAE700261021404600F0FAF8D3
:100BC000814619F0040F03D04FF40060206201E069
:100BD0000020206219F0020F02D00020606116E0B0
:100BE0004FF48040606112E0206AC0F3CF00616979
:100BF000C1F34F0140EA01020021404600F0F8F93C
:100C000008B90020A2E76FF07F40FFF700FF4248DD
:100C1000056846480540D4E901010843E1680843F6
:100C20002169084361690843A1690843E1690843F0
:100C3000216A0843616A0843A16A0843E16A0843DC
:100C4000216B0843616B0843054333480560D4E9D1
:100C50000E010843216C0843616C0843A16C0843F2
:100C6000E16C0843216D0843616D08432A494860DF
:100C7000A06D8860E06DC860084685694FF64170D8
:100C80000540D4E9181040EA0140A16E0843E16E26
:100C90000843216F0843616F084305431E4885617F
:100CA000D4E91E0108431C49C861214885692148CF
:100CB0000540D4E920010843D4F888100843D4F84B
:100CC0008C100843D4F890100843D4F894100843CB
:100CD000D4F898100843D4F89C100843D4F8A01016
:100CE0000843054312488561D4E929010843D4F833
:100CF000AC100843D4F8B0100843D4F8B41040EA5C
:100D00008100D4F8B810084340F400000849086096
:100D100001201BE70087930300800240002D310172
:100D2000C00E1602FFFF0F00FFFF04000F8120FF1F
:100D300000900240233FDEF810B50B794C7943EA6E
:100D40000422094B03441A64CB781B068C7843EACF
:100D500004434C7843EA04230C7843EA0402024B30
:100D600003445A6410BD00000080024030B10749BE
:100D7000096841F00401054A116005E0034909686A
:100D800021F00401014A1160704700000080024018
:100D900030B10749096841F00801054A116005E0D2
:100DA0000349096821F00801014A116070470000F9
:100DB0000080024010B503460C4600210022134873
:100DC000016901F01C014FF4784000EAC32001439F
:100DD0004FF4F86000EA8410014321F0020141F071
:100DE00001010A48016100BF521C0848016911F065
:100DF000010F02D006488242F6D30548824201D153
:100E0000002010BD0148406980B2FAE7008002402E
:100E1000FFFF04001EB50021002200920192029201
:100E2000214A1268126812F0004F10D0002200927E
:100E30001E4A526912F0800F04D080221B4B5A6167
:100E400000229A609DE81C0080E81C001EBD164A26
:100E50001268126812F4004F16D1134A1268126811
:100E600012F4807F10D0104A1268126812F4007FCA
:100E70000AD00D4A12681268C2F30D42111F0A4AC5
:100E800012689268019200E000210091064A1268FF
:100E90000292054A1268D268034B1A609DE81C0052
:100EA00080E81C0000BFD1E76C00002000900240E9
:100EB0000348006840F001000149086070470000E5
:100EC0000090024000B50120FFF762FFFFF7A6FD8A
:100ED0000120FFF74BFF0120FFF754FD0120FFF732
:100EE00009FD00BD0021016041608160C1600161B8
:100EF00041618161C161016241628162C1620163DC
:100F000041638163C1634021016420214164002168
:100F10008164C164016541658165C16501668021A7
:100F2000416600218166C166016741678167C167CB
:100F30004FF08061C0F880104910C0F8841049104B
:100F4000C0F88810C910C0F88C100021C0F89010AB
:100F5000C0F89410C0F89810C0F89C10C0F8A01009
:100F60004FF00071C0F8A4100021C0F8A8104FF491
:100F70000031C0F8AC104912C0F8B0100021C0F820
:100F8000B410C0F8B81070470146174800680068F0
:100F900010F0004F01D000207047C1F30C00124A3E
:100FA0001268506010480068006840F040500E4AD7
:100FB000126810600C480068006840F000400A4A5F
:100FC000126810600948406910F0040F04D0042032
:100FD000064A50610020506003480068C068024A19
:100FE00010600120D8E70000680000200090024057
:100FF00030B503460C46154600210022124801690F
:1010000001F01C014FF4784000EAC32001434FF483
:10101000F86000EA8410014341F0020141F001014F
:1010200009484561016100BF521C0748016911F080
:10103000010F02D005488242F6D30448824201D112
:10104000002030BD0120FCE700800240FFFF0400CB
:1010500000B5AFB0012000F04BF84FF4004002F0B3
:1010600087F9012002F07EF900BF3D2002F056F919
:101070000028FAD00B2002F06FF9FFF7BDFCFFF754
:1010800017FF00BFFFF704FD0128FBD06846FFF7FC
:1010900029FF01200090002007904FF400700A9073
:1010A00000200B900E9011901390149015902090AA
:1010B0004FF0007021900011239000202590269081
:1010C00004202890C005299040122A9080012B907E
:1010D00040122C9040002E9001216846FFF706FD3B
:1010E00001210248FFF7F6FB2FB000BD40000100D0
:1010F0000149086070470000DC0020422DE9F04102
:10110000024600250026002000230024002791F835
:1011100003C00CF00F0591F803C01CF0100F03D0B2
:1011200091F802C04CEA0505B1F800C01CF0FF0FB1
:1011300031D0146800202BE04FF0010C0CFA00F3C2
:10114000B1F800C00CEA03069E4220D183004FF0A4
:101150000F0C0CFA03F7BC4305FA03FC4CEA040439
:1011600091F803C0BCF1280F06D14FF0010C0CFA26
:1011700000FCC2F814C00AE091F803C0BCF1480FAB
:1011800005D14FF0010C0CFA00FCC2F810C0401C55
:101190000828D1D31460B1F800C0BCF1FF0F34DDD2
:1011A000546800202EE000F1080C4FF0010808FA06
:1011B0000CF3B1F800C00CEA03069E4221D1830073
:1011C0004FF00F0C0CFA03F7BC4305FA03FC4CEA92
:1011D000040491F803C0BCF1280F05D100F1080CFC
:1011E00008FA0CF8C2F8148091F803C0BCF1480F5B
:1011F00007D100F1080C4FF0010808FA0CF8C2F80A
:101200001080401C0828CED35460BDE8F081000057
:10121000F0B50A46002300240021002500F0004616
:10122000B6F1004F02D11D4EF16901E01B4E71680D
:10123000C0F3034583B200F44016B6F5401F08D151
:1012400021F07061154E766826F07066134F7E604F
:1012500012E000F48016B6F5801F06D1032606FAC8
:1012600005F4A14341F0706106E0460D360103FA32
:1012700006F6B14341F0706122B1460D360103FA22
:1012800006F6314300F00046B6F1004F02D1034E9E
:10129000F16101E0014E7160F0BD0000000001400D
:1012A00000BFFEE72DE9F05F80464FF040090022C5
:1012B0004946032004F0DCFE064636B91BA002F0C6
:1012C0004FFC6FF00400BDE8F09F7568002407E054
:1012D000FF2028552048015DA81D0155601CC4B29F
:1012E000062CF5DB4FF40270A8810020A873E87388
:1012F0002874706800F11107012038707F1C0024E9
:1013000003E000203855601CC4B22E2CF9DB706855
:1013100000F1110A31464046D8F80C209047834628
:10132000304604F08AFF5846CDE7000065746862D5
:1013300063705F646973636F7665725F7265706C0A
:101340007928293A72756E206F7574206F66206D4A
:10135000656D6F72792E0A000001002000BFFEE764
:10136000704708B54FF4C06000F078F83D208DF864
:10137000000001208DF801008DF802008DF80300B7
:10138000684600F029F808BD08B54FF4A06000F0E9
:1013900065F832208DF8000000208DF801008DF8EE
:1013A000020001208DF80300684600F015F808BD22
:1013B00008B54FF4C06000F051F826208DF8000009
:1013C00003208DF801008DF8020001208DF8030044
:1013D000684600F001F808BD70B5002100230F2217
:1013E000C4784CB31A4C246804F4E064C4F5E06497
:1013F0004FEA1421C1F1040322FA01F2447804FAFD
:1014000003F1847804EA020444EA01014FEA01117D
:10141000104C0678A155047804F01F054FF0010424
:1014200004FA05F405784FEA65154FF0E02606EB5F
:101430008505C5F8004109E0047804F01F05012482
:10144000AC40054D0678761145F8264070BD000089
:101450000CED00E000E400E080E100E0024901431F
:10146000024A1160704700000000FA050CED00E030
:101470001D481E481E481F481F4820482048214834
:101480002148224822482348234824482448254804
:1014900025482648264827482748284828482948D4
:1014A00029482A482A482B482B482C482C482D48A4
:1014B0002D482E482E482F482F4830483048314874
:1014C0003148324832483348334834483448354844
:1014D0003548364836483748374838483848394814
:1014E000394800BF70470000B07D0008B47D000897
:1014F000BA7D0008BC7D0008B87D0008BE7D0008EC
:10150000C07D0008C27D0008C47D0008C67D0008BB
:10151000C87D0008CA7D0008CC7D0008CE7D00088B
:10152000D07D0008D27D0008D47D0008D67D00085B
:10153000D87D0008DA7D0008DC7D0008DE7D00082B
:10154000E07D0008E27D0008E47D0008E67D0008FB
:10155000E87D0008EA7D0008EC7D0008EE7D0008CB
:10156000F07D0008F27D0008F47D0008F67D00089B
:10157000F87D0008FA7D0008FC7D0008FE7D00086B
:10158000007E0008027E0008067E0008087E000833
:101590000A7E00080C7E0008441D0020C4200020A4
:1015A000107E0008127E0008147E0008167E0008D7
:1015B000187E00081A7E00081C7E00081E7E0008A7
:1015C000207E00080E7E0008227E00082DE9F041F2
:1015D00005460E46144600271DB904202070BDE8BC
:1015E000F08116B90C202070F9E71148007810B18D
:1015F00012202070F3E72878012808D0022807D0AD
:10160000032802D0042804D100E000BF00BF00BFBF
:1016100002E001202070E2E700BFFEF7B5FD0746BB
:101620006E613846FEF7B4FD0020207000BFD6E79B
:10163000A900002010B500F019F801F0B7FA01F088
:10164000DFFA01F0FFFA01F081FA01F053FA01F03C
:1016500093FB01F0BDFB01F035FB01F05BFB00F0FB
:10166000FDFF00F009F8FFF703FF10BD002001495E
:10167000088070478C0000207047000010B50024DF
:101680001A480078012830D1FEF77EFD044618483C
:10169000007820B116480078401E1549087014489B
:1016A0000078F8B913480078E0B901F0F3FB12486C
:1016B0001249097850F82100114908600F48007854
:1016C0001049097888420DD00D480068C06B401C55
:1016D0000B490968C8630C480068401C0A49086047
:1016E000FEF76EFD2046FEF753FD10BDB60000204C
:1016F000A9000020AA000020DC130020AC0000207C
:10170000C4000020AB000020900000202DE9FC5F09
:1017100005460F4691461E460020009025B96220DE
:1017200030700020BDE8FC9F15F0030F03D062204D
:1017300030700020F6E7022F03D25B2030700020CB
:10174000F0E7B9F1040F03D25C2030700020E9E724
:10175000FEF71AFD009016480468006820B114488E
:1017600000684068124908600098FEF711FD1CB936
:101770005A2030700020D5E7AA46A846781E01906E
:101780004FF0000B05E0C844CAF80080C2460BF1D8
:10179000010B01988345F6D30020CAF800002560AC
:1017A00065602761E760C4F8089030702046B9E7AB
:1017B000D00000202DE9F04104460D46002724B951
:1017C000602028700020BDE8F081FEF7DDFC0746B0
:1017D000206960B16668306860602069401E2061E1
:1017E0003846FEF7D5FC002028703046EBE7384637
:1017F000FEF7CEFC5D2028700020E4E770B50446BB
:101800000D4600260CB9602070BD0DB95F20FBE7C6
:10181000FEF7BAFC0646D4E90310884204D33046EA
:10182000FEF7B6FC5E20EFE760682860656020691F
:10183000401C20613046FEF7ABFC0020E4E72DE9B8
:10184000F04106460D464FF0000826B904202870E6
:101850000020BDE8F0813078022803D001202870F4
:101860000020F6E7FEF790FC80467468E08A78B1C5
:101870002169081D20610F68E08A401EE082A1688E
:101880002069884201D1606820610020287002E050
:101890001F20287000274046FEF77AFC3846D8E71C
:1018A0002DE9F04106460F464FF000082048007829
:1018B00010B10020BDE8F081FEF766FC80461D48AF
:1018C0000468006820B11B48006840681949086036
:1018D0004046FEF75DFCFCB1FEF756FC804616481C
:1018E0000568D5B100680068134908604046FEF7F6
:1018F0004FFC6E6006EB8700A860EE602E61AF8241
:101900000020E882022020700020208165600BA06A
:101910006061204601F0E0F808E006480068606079
:10192000044804604046FEF733FC00242046C1E72B
:10193000A900002094000020D40000203F000000F7
:101940002DE9F0470446894615464FF0000A24B9B0
:10195000042028702046BDE8F0872078022803D0B4
:10196000012028702046F6E73548007818B10F208E
:1019700028702046EFE7FEF707FC8246A07A10B1F8
:101980004FF0010801E04FF00008B9F1000F03D05B
:10199000B9F1010F49D121E0B8F1000F17D129A009
:1019A000606166682848006830602748066000204B
:1019B0002070264800686060002020812348046071
:1019C0005046FEF7E5FB00202870002705E0504652
:1019D000FEF7DEFB4920287027462DE005E00023B6
:1019E00004221946204600F0A5FFA07A0028F6D16F
:1019F00014A0606166681448006830601248066090
:101A000000202070114800686060002020810F488D
:101A100004605046FEF7BCFBB8F1010F01D101F0A4
:101A2000FFF900202870002706E05046FEF7B0FBC3
:101A300007202870274600BF00BF38468BE700000C
:101A4000A90000203F000000D400002094000020E6
:101A500070B5054600260DB9042070BD287802280F
:101A600001D00120F9E7FEF78FFB06466C6860683D
:101A7000E060606820610020E0823046FEF788FB6D
:101A80000020EAE72DE9F0470646884615464FF064
:101A9000000926B9042028700020BDE8F0873078BE
:101AA000022803D0012028700020F6E73D48007886
:101AB00018B1022028700020EFE73B48007818B1E9
:101AC0000D2028700020E8E7FEF75EFB8146746871
:101AD000E08A98B12169081D20610F68E08A401EE4
:101AE000E082A1682069884201D16068206148468F
:101AF000FEF74EFB002028703846CEE72B480068E2
:101B000090F8340040F004002849096881F8340056
:101B100000202649096881F8350024480068C0F88B
:101B20003080304600F096FF4846FEF731FB01F06A
:101B300077F9FEF729FB81461C48006890F83500CC
:101B400020B101280DD002280AD105E0174800680D
:101B5000476A002028700DE000270E20287009E059
:101B600000BF31461148006800F032FF00270A200C
:101B7000287000BF00BF00200C49096881F83400BC
:101B80000A49096881F8350008490968C8610749A8
:101B9000096808620549096848624846FEF7F8FA8C
:101BA00038467AE7A9000020AA000020BC000020E7
:101BB0002DE9F04105460E46002715B90420BDE881
:101BC000F0812878022801D00120F8E7FEF7DCFA3E
:101BD0000746A87A60B1002304223146284600F067
:101BE000A9FE3846FEF7D4FA01F01AF90020E6E71C
:101BF0006C68E08AA18A884204DB3846FEF7C8FA9E
:101C00001E20DCE7E168081DE0600E60E08A401CF1
:101C1000E082D4E90210884201D16068E060384671
:101C2000FEF7B6FA0020CAE710B500240B4800788A
:101C3000012811D1FEF7A8FA04460948007840B9F6
:101C400008480078FF2804D206480078401C05495F
:101C500008702046FEF79CFA10BD0000B600002078
:101C6000A9000020AA00002010B500241348007825
:101C7000012821D1FEF788FA044611480078C0B146
:101C80000F480078401E0E4908700846007860B979
:101C90000C48007828B92046FEF77AFA01F0C0F81F
:101CA0000AE02046FEF774FA06E02046FEF770FAD6
:101CB00002E02046FEF76CFA10BD0000B6000020DE
:101CC000AA000020A900002070B505460026104893
:101CD000007808B1002070BDFEF756FA06460D48A0
:101CE0000468006820B10B48006840680949086032
:101CF0003046FEF74DFA4CB10320207025810020BC
:101D0000606005A06061204600F0E6FE2046E2E744
:101D1000A9000020940000203F0000002DE9F047BA
:101D20000446884615464FF0000924B9042028705F
:101D30002046BDE8F0872078032803D001202870D2
:101D40002046F6E72C48007818B10F20287020466E
:101D5000EFE7FEF719FA8146A07A08B1012700E003
:101D60000027B8F1000F03D0B8F1010F3AD119E004
:101D70008FB922A060610020207021480068606057
:101D8000002020811E4804604846FEF701FA00202A
:101D90002870002605E04846FEF7FAF94920287029
:101DA000264626E005E0002301221946204600F0E1
:101DB000C1FDA07A0028F6D110A06061002020703B
:101DC0000F4800686060002020810D48046048468C
:101DD000FEF7DEF9012F01D101F022F80020287072
:101DE000002606E04846FEF7D3F90720287026466D
:101DF00000BF00BF30469CE7A90000203F00000064
:101E0000940000202DE9F04105460E4614460027B7
:101E10001DB904202070BDE8F0812878032802D085
:101E200001202070F7E73248007810B102202070BE
:101E3000F1E73048007810B10D202070EBE7FEF795
:101E4000A3F90746288940B12889401E28813846D1
:101E5000FEF79EF900202070DDE72748006890F823
:101E6000340040F001002449096881F83400002062
:101E70002149096881F835001F4800680663284633
:101E800000F0E8FD3846FEF783F900F0C9FFFEF7E1
:101E90007BF907461848006890F8350020B1012802
:101EA00009D0022806D102E0002020700BE00E20AD
:101EB000207008E000BF29460F48006800F088FD48
:101EC0000A20207000BF00BF00200B49096881F87C
:101ED00034000949096881F8350007490968C86173
:101EE0000549096808623846FEF752F900BF92E7D3
:101EF000A9000020AA000020BC00002070B5044604
:101F000000250CB9042070BD2078032801D00120E1
:101F1000F9E7FEF739F90546A07A60B100230122FE
:101F20001946204600F006FD2846FEF731F900F07C
:101F300077FF0020E7E720894FF6FF71884207D23C
:101F40002089401C20812846FEF722F90020DAE78C
:101F50002846FEF71DF93320D5E7000010B50B48E1
:101F6000007890B900F096FF094800780949087098
:101F700009480749097850F82100084908600846CF
:101F8000006807490860FEF706F910BDB60000209A
:101F9000AC000020AB000020DC130020C4000020B7
:101FA000BC00002010B50024022000F02FFAFEF73C
:101FB000EBF8044600200B4908602046FEF7E8F8DD
:101FC0000A2000F023FAFEF7DFF80446054800680F
:101FD000054908600120054908702046FEF7D8F839
:101FE00010BD0000B8000020A0000020A8000020C4
:101FF00010B504462046FEF743FC10BD2DE9FE4F08
:1020000006460F4690461C464FF000093F2C02D969
:102010002A20BDE8FE8FFEF7B7F881461E480078FB
:1020200020B14846FEF7B4F83C20F2E71B4850F8D0
:10203000240058BB0120194941F824004846FEF706
:10204000A7F8002342463946304600F02BF9824675
:102050000023009301931A4651462046029300F054
:102060002FFF054635B90E48007801280CD100F045
:10207000D7FE09E0FEF788F881460020074941F8BD
:1020800024004846FEF784F82846C2E74846FEF793
:102090007FF82820BDE70000A9000020DC13002005
:1020A000B60000202DE9F04F85B080468946924663
:1020B0001C46DDE90EB6129F002003903F2C03D989
:1020C0002A2005B0BDE8F08FFEF75EF803902248A5
:1020D000007820B10398FEF75BF83C20F1E71F4839
:1020E00050F8240088BB01201C4941F824000398C3
:1020F000FEF74EF83A463046109900F0F9FF3B469D
:1021000052464946404600F0CDF80490DDE91012F1
:102110005B468DE8860032462046049900F0D0FEEA
:10212000054635B90E48007801280CD100F078FE3C
:1021300009E0FEF729F803900020084941F824003F
:102140000398FEF725F82846BBE7FFE70398FEF75C
:102150001FF82820B5E70000A9000020DC130020AC
:10216000B600002010B504462046FEF78EFB10BDD9
:1021700010B5FEF78BFB10BD2DE9F04105460F466B
:1021800014464FF000083F2D05D9FF2D03D02A201B
:102190002070BDE8F08117B90C202070F9E71448D1
:1021A000007810B112202070F3E7FDF7EDFF8046B4
:1021B000FF2D03D10F48006890F836500E4850F8B4
:1021C00025602EB94046FDF7E3FF43202070E0E78D
:1021D000012E05D14046FDF7DBFF43202070D8E7F4
:1021E00037654046FDF7D4FF0020207000BFD0E7E0
:1021F000A9000020BC000020DC13002010B5FEF771
:1022000054FB10BD2DE9F04706460C464FF0000A7E
:102210003F2E04D9FF2E02D02A20BDE8F0870CB94A
:102220000920FAE7002020606060FDF7ADFF8246DC
:10223000FF2E03D11948006890F83660184850F80E
:10224000265025B95046FDF7A3FF4320E5E7012DB1
:1022500004D15046FDF79CFF4320DEE7288A10F0AA
:10226000010F04D15046FDF793FF4520D5E7002725
:10227000D5F80C90D5F808805046FDF789FF00E0AE
:102280007F1C58F8041B0029FAD0B8002060A9EB85
:102290000700800060600020BFE70000BC00002055
:1022A000DC13002070B5044610464FF080750560C1
:1022B000051F28462C606FF00106051F28462E607A
:1022C0004FF01236051F28462E604FF00336051FCB
:1022D00028462E604FF00236051F28462E607610E5
:1022E000051F28462E60051F284629604FF011362D
:1022F000051F28462E604FF01036051F28462E6019
:102300004FF00936051F28462E604FF00836051F8E
:1023100028462E604FF00736051F28462E604FF0E6
:102320000636051F28462E604FF00536051F284645
:102330002E604FF00436051F28462E6070BD000049
:102340002DE9F04105464FF000083F2D02D147200E
:10235000BDE8F0813F2D03D3FF2D01D02A20F7E700
:10236000FDF712FF8046FF2D05D12248006890F846
:102370003650012608E01F48006890F83600A84251
:1023800001D1012600E000261B4850F8254024B961
:102390004046FDF7FDFE4820DAE7012C04D1404617
:1023A000FDF7F6FE4320D3E794F838701348C05D7C
:1023B00094F83910C943C9B208401049C8550846B5
:1023C000C05D40B994F83A00C043C0B20C490978E6
:1023D00008400B49087094F8340040F0080084F875
:1023E00034004046FDF7D4FE012E01D100F018FD67
:1023F0000020ADE7BC000020DC130020AE00002070
:10240000AD00002010B5FEF751FA10BD70B50546BD
:1024100000261948007800B170BD1848007800B156
:10242000FAE73DB3FDF7B0FE06461548006890F8A0
:1024300038401448005D1249096891F83910C943C1
:10244000C9B208400F4908550846005D50B90C480C
:10245000006890F83A00C043C0B20B4909780840C0
:10246000094908700648006805633046FDF790FE8C
:1024700000F0D6FC00BFCFE7A9000020AA00002092
:10248000BC000020AE000020AD0000202DE9F0418E
:1024900007460C4615461E461B48007810B15520CD
:1024A000BDE8F0811948007808B13220F8E727B973
:1024B0001CB915B90EB95420F2E73B2C01D95120B3
:1024C000EEE73B2D01D95220EAE7B6F57A7F01D33A
:1024D0005320E5E7701D642148434FF47A71B0FB47
:1024E000F1F14FF461607843C4EB041200EB820019
:1024F000284400EBC00202EB001001EB80084046CC
:10250000FFF784FF0020CBE7A9000020AA000020ED
:1025100070B50025FDF738FE0546034804682846D7
:10252000FDF736FE204670BDD800002070B50026AD
:1025300000F076F8FDF728FE064633480068401C98
:10254000314908603046FDF723FE30480078012805
:1025500057D12F48007820B1012804D0022809D192
:1025600003E001250BE0002509E0012501202849B1
:10257000087004E0012500202549087000BF00BF55
:1025800005B970BD2348046837E0FDF7FDFD064638
:10259000206B70B3206B401E2063206B48BB94F807
:1025A000340010F0370F09D014F8340F00F0C800D1
:1025B000207001206070A4F1340402E0002084F84F
:1025C000350094F8340010F0080F12D104F13804EB
:1025D000A0781149097840EA01000F490870207875
:1025E0000E49085C617840EA010014F838190B4A7A
:1025F000505464693046FDF7CBFD94F836003F280F
:10260000C3D100BFBDE70000D8000020B600002005
:10261000CC000020C8000020AD000020AE0000204B
:1026200010B5FEF744F907480088401C05490880AA
:10263000084600880A2803D30020088000F004F828
:1026400010BD00008C00002010B503480068FFF7A3
:1026500055FC0446204610BDE8000020F8B54FF4B4
:102660002071284800F07EFB4021274800F07AFBCB
:10267000002514E0681C86B205EB8500214901EBBA
:10268000C00406EB860001EBC00764202070002028
:1026900084F82500E7601DA02062681C85B20F2D1C
:1026A000E8D305EB8500174901EBC00464202070D6
:1026B000002084F82500E06014A020620020144966
:1026C0000860144908801020134908800D481349F8
:1026D00008600120FFF7F8FA114908600020FFF7B1
:1026E000F3FA104908606A460FA10D480068FEF72A
:1026F0006DFF6A4611A10B480068FEF767FF00F006
:1027000027F8F8BD441D0020C42000203F00000031
:10271000E0000020DE000020DC000020EC000020B3
:10272000E4000020E800002075432F4F532D494955
:1027300020546D724C6F636B0000000075432F4F87
:10274000532D494920546D725369676E616C0000C6
:1027500000B587B00323002240210B48CDE90323B5
:10276000CDE901014FF6FD7300933D2300F1FC021A
:1027700000210648FFF796FC06AA05A13D20FFF7B9
:10278000FBFC07B000BD0000C41F00200D2800089E
:1027900075432F4F532D494920546D72000000009E
:1027A00070B50C46032580F82550012C05D1154E37
:1027B000C5693668354445610CE085692DB9114E0F
:1027C000C56936683544456104E00E4E8569366852
:1027D00035444561456905F007030B4D05EBC30121
:1027E0000D682DB908600025C56001258D8006E0C3
:1027F0000A680860C26010618D886D1C8D8000259C
:10280000056170BDE0000020C420002008B500BFB5
:1028100000BF6A4600211A480068FFF7F3FAFFF785
:1028200003FA18480068401C16490860084600680A
:1028300000F00706144800EBC608D8F800401AE07C
:10284000E768104960690968884213D1204600F0A2
:102850001DF894F82400022804D101212046FFF736
:102860009FFF02E0022084F82500656815B120462C
:10287000A168A8473C46002CE2D1FFF7F5F9C8E76C
:10288000E8000020E0000020C420002030B54569A9
:1028900005F007040D4D05EBC4031D68854205D105
:1028A000C168196039B100250D6104E00169C26891
:1028B000CA6002B11161012580F825500025C5606C
:1028C00005619D886D1E9D8030BD0000C4200020E4
:1028D000154909686422B1FBF2F0B0F1807F01D3A1
:1028E00001211CE020F07F41491E4FF0E0225161A0
:1028F00000BF5117002905DA0F2109010B4A0B23EC
:10290000D15404E00F210901094A5317D15400BFE3
:1029100000214FF0E022916107211161002109B1EE
:1029200000BFFEE7704700007800002018ED00E0CF
:1029300000E400E02DE9F04F05460F469046994629
:10294000A87A1F490E5C05F10B00805D11F800B0FC
:102950000BEBC60000F0FF0A1A4850F82A4000208E
:1029600004F12404E0602760207C6FEA0801C9B20A
:1029700000EA0100207484F81190207CA4F1240462
:1029800010F0080F0DD194F83A000F490978084368
:102990000D4908700D48805D94F8391008430B49C3
:1029A00088552946204600F013F8206A20B12046B9
:1029B000216A00F026F8E5615046BDE8F08F00007E
:1029C000247E0008DC130020AD000020AE000020B3
:1029D00010B590F8382001F10B039B5C90F839405A
:1029E000E443E4B2234001F10B04A35423469B5C6F
:1029F00033B98B7A90F83A40E443E4B223408B72C7
:102A000010BDF0B5024612F8384F95785678A2F10D
:102A100038020B46186819E000F10B073F5D6FEABA
:102A2000060C0CF0FF0C07EA0C0700F10B0C0CF87D
:102A3000047067463F5D3FB9877A6FEA050C0CF07A
:102A4000FF0C07EA0C0787721B1D18680028E3D1EA
:102A5000F0BD000010B51D4A1268D0611B4A126813
:102A600092F8383000F10B02D25C184B1B6893F8D7
:102A700039301A43154B1B6893F8384000F10B03AB
:102A80001A55827A114B1B6893F83A301A438272B6
:102A90000E4A126892F838100D4A525C0B4B1B68B4
:102AA00093F83930DB43DBB21A40094B5A541A46CB
:102AB000525C52B9054A126892F83A20D243D2B217
:102AC000044B1B781A40034B1A7010BDBC00002049
:102AD000AE000020AD000020014600228A720020D6
:102AE00005E0002301F10B021354421CD0B2082868
:102AF000F7D370472DE9F0415021114800F032F929
:102B000000250DE0681C86B20D4800EB051400EBB3
:102B100006170020207067600AA0E060681C85B27C
:102B2000042DEFD3064800EB0514002020706060F0
:102B300004A0E060024804490860BDE8F08100009C
:102B40000C1200203F0000009800002070B54FF4E8
:102B5000F071134800F006F9002411E0601C85B202
:102B600004EB44000E4901EBC00305EB450001EB0B
:102B7000C006002018705E600AA05861601C84B214
:102B8000132CEBD304EB4400054901EBC0030020F8
:102B90001870586003A0586108460349086070BD6A
:102BA0002C1000203F0000009400002000200A4963
:102BB00008600A4908700A4908700A4908700A49F9
:102BC00008700A4908600A4908600A4908600A4909
:102BD00008600A4908707047D8000020A90000204A
:102BE000AA000020B7000020B600002090000020BE
:102BF000B8000020A4000020A0000020A8000020B1
:102C000000210A4A1170002004E00021084A1154F2
:102C1000411CC8B20828F8D30021064A1170064AA0
:102C20001170064A1160064A11607047AD0000201D
:102C3000AE000020AB000020AC000020C40000204B
:102C4000BC00002070B54FF4F261194800F08AF81A
:102C50004FF48071174800F085F8002413E0601CE1
:102C6000C5B204EB440000EBC400114901EBC00302
:102C700005EB450000EBC50001EBC0065E610EA050
:102C80001865601CC4B2152CE9D304EB440000EBBA
:102C9000C400074901EBC0030020586106A0186575
:102CA00000200649086002480549086070BD000020
:102CB000DC140020DC1300203F000000C8000020CE
:102CC000C000002000B587B00323002220210B485C
:102CD000CDE90323CDE901014FF6FF7300933F23B4
:102CE00000F17C0200210648FFF7DCF906AA05A1E5
:102CF0003F20FFF741FA07B000BD00005C13002041
:102D00000530000875432F4F532D49492049646C05
:102D10006500000000B587B00323002240210B4866
:102D2000CDE90323CDE901014FF6FE7300933E2365
:102D300000F1FC0200210648FFF7B4F906AA05A13C
:102D40003E20FFF719FA07B000BD00005C1200201A
:102D50002D30000875432F4F532D4949205374617E
:102D60007400000004E0002200F8012B4A1E91B21A
:102D70000029F8D17047000070B578211148FFF79D
:102D8000F1FF00240EE004EB44000E4901EBC00506
:102D9000601C00EB400001EBC00068600AA06861A5
:102DA000601C84B2042CEED304EB4400054901EB13
:102DB000C0050020686004A06861084603490860F7
:102DC00070BD00006C1C00203F000000D0000020FF
:102DD0002DE9F04160211048FFF7C4FF00240DE009
:102DE000601C86B204EB44000B4901EBC00506EB06
:102DF000460001EBC0072F60601C84B2032CEFD3A8
:102E000004EB4400044901EBC0050020286008469B
:102E100002490860BDE8F081E41C0020D4000020D5
:102E200010B50024FDF7B0F9044613480078F8B94E
:102E300012480078E0B900F02DF8114811490978DE
:102E400050F82100104908600E4800780F490978B1
:102E500088420DD00C480068C06B401C0A490968C4
:102E6000C8630B480068401C09490860FDF7A3F9D6
:102E70002046FDF78DF910BDA9000020AA00002012
:102E8000DC130020AC000020C4000020AB000020B8
:102E9000900000200649074A1278885C0649095CC0
:102EA000034A515C01EBC001044A117070470000F5
:102EB000247E0008AD000020AE000020AC00002001
:102EC0002DE9F84F05460F4690469946DDE90AABD5
:102ED00000200090FDF758F9009043480468002C4A
:102EE0007CD004F11C0454F8080C3F490860009899
:102EF000FDF74EF944F81C7CA5760020207660761C
:102F0000606144F818BC44F810AC44F8148C0C9878
:102F100024F80C0C24F80A9C0020E077E8102077B5
:102F200005F00700E076217F01208840A077E17E50
:102F3000012088406077002020606060E060A06031
:102F40002062A0626062E062206328A06063A4F156
:102F50001C044FF0000606E0002104F1540040F884
:102F60002610701CC6B2002EF6D02046FFF740F89F
:102F70002046FFF7F7F8FDF707F900901C4840F8E6
:102F800025401C48006860610020A0611948006865
:102F900010B11848006884611648046004F13804D0
:102FA000A0781549097840EA010013490870207893
:102FB0001249085C617840EA010014F838190F4A98
:102FC00050540F48007800F101000D490870009836
:102FD000FDF7DEF80020BDE8F88FFFE70098FDF769
:102FE000D7F84220F7E70000C00000203F000000B3
:102FF000DC130020C8000020AD000020AE0000203F
:10300000B7000020002400BF00BFFDF7BDF8044654
:1030100005480068401C044908602046FDF7B8F8E0
:10302000FFF7A6F8F1E70000B8000020002400BF79
:1030300002E01420FFF7EAF9194800780028F8D0D8
:10304000184800686421B0FBF1F016490860084692
:10305000006828B9002014490870FF20FFF770F9B4
:1030600000BFFDF791F80446104800681049086059
:1030700000200E4908602046FDF78AF80C480068D9
:1030800008490968B0FBF1F0C0F164000649087016
:10309000FFF7B4F800F00EF80A20FFF7B7F9E0E701
:1030A000A8000020A00000209C000020B800002004
:1030B000A40000207CB5002514E069462846FFF7EF
:1030C000A1F8064666B9094850F8254044B1012CDC
:1030D00006D0D4E9020100EB8100A0640198E0640D
:1030E000681CC5B23F2DE8D97CBD0000DC13002070
:1030F00012F0010F08D012F0020F05D002E0491EB5
:10310000002308C00029FAD17047000029B1064AFF
:1031100052690243044B5A6104E0034A52698243F4
:10312000014B5A61704700000010024029B1064A65
:10313000926A0243044B9A6204E0034A926A824311
:10314000014B9A62704700000010024029B1064A04
:10315000D2690243044BDA6104E0034AD269824334
:10316000014BDA61704700000010024029B1064AA5
:1031700092690243044B9A6104E0034A92698243D4
:10318000014B9A6170470000001002402DE9F041A8
:1031900000210022002500230026002400278C4661
:1031A000DFF86081D8F8048008F00C0121B104290F
:1031B00007D0082959D109E0DFF84C81C0F8008018
:1031C00058E0DFF84881C0F8008053E0DFF8348130
:1031D000D8F8048008F47012DFF82881D8F8048049
:1031E00008F48035920C0D2A01D0921C00E00622D2
:1031F00035B9DFF81C8102FB08F8C0F8008033E025
:10320000DFF80081D8F82C8008F48036DFF8F480ED
:10321000D8F82C8008F00F0808F1010446B9DFF84F
:10322000EC80B8FBF4F808FB02F8C0F800801BE063
:10323000DFF8D080D8F82C80C8F3031808F1010714
:10324000DFF8C080D8F82C80C8F3032808F1020CFE
:10325000DFF8B880B8FBF7F808FB0CF8B8FBF4F817
:1032600008FB02F8C0F8008004E0DFF89C80C0F89A
:10327000008000BF00BFDFF88C80D8F8048008F021
:10328000F0010909DFF88C8018F80130D0F80080CF
:1032900028FA03F8C0F80480DFF86880D8F80480C2
:1032A00008F4E061090ADFF86C8018F80130D0F802
:1032B000048028FA03F8C0F80880DFF84880D8F8BE
:1032C000048008F46051C90ADFF8488018F801301A
:1032D000D0F8048028FA03F8C0F80C80DFF82480C6
:1032E000D8F8048008F44041890BDFF82C8018F8E6
:1032F0000130D0F80C80B8FBF3F8C0F81080BDE8BE
:10330000F08100000010024000127A0040787D0138
:1033100000093D00540000206400002010B5014663
:103320000022002300204A11012A02D1094C2368FF
:1033300006E0022A02D1074C236A01E0054C636AC9
:1033400001F01F02012494401C4201D0012000E042
:10335000002010BD001002400149C87170470000F4
:103360000010024001490867704700000000424217
:1033700001460020034AD06A20F470400843D0621E
:103380007047000000100240704710B500F002F8CE
:1033900010BD0000002100203A4A126842F4803239
:1033A000384B1A6000BF374A126802F40030491CDB
:1033B00010B9B1F5A06FF6D1324A126812F4003F8D
:1033C00001D0012000E0002001285AD12E4A1268C5
:1033D00042F010022C4B1A601A46126822F00302C7
:1033E0001A601A46126842F002021A60254A5268B0
:1033F000244B5A601A4652685A601A46526842F480
:1034000080625A601A46D26A204B1A401D4BDA621B
:103410001A46D26A1E4B1A431A4BDA621A461268CF
:1034200042F080621A6000BF164A126812F0006F04
:10343000FAD0144A526822F47C12124B5A601A468F
:10344000526842F4E8125A601A46126842F08072DA
:103450001A6000BF0B4A126812F0007FFAD0094AC6
:10346000526822F00302074B5A601A46526842F033
:1034700002025A6000BF034A526802F00C02082A96
:10348000F9D17047001002400020024000F0FEFF1A
:103490004406010010B5FCF777FE044606480078A4
:1034A000401C054908702046FCF772FEFFF73EF805
:1034B000FEF7E4F810BD0000A900002010B5164882
:1034C000006840F00100144908600846406813494C
:1034D00008401149486008460068114908400E49F3
:1034E00008600846006820F48020086008464068AC
:1034F00020F4FE0048600846006820F0A0500860F4
:103500004FF47F0088600020C862FFF73EFF4FF055
:1035100000600449086010BD001002400000FFF088
:10352000FFFFF6FE08ED00E010B540200D490870E1
:10353000FF20487000208870C87008714871887139
:1035400000224021032002F093FD0749086008464D
:10355000006810B905A000F003FB024803F0E8FC86
:1035600010BD000000010020FC0000205442435F19
:10357000444C4C5F696E697428293A72756E206FED
:103580007574206F66206D656D6F72792E0A00006C
:10359000064AC2F8040AC2F8001A0023A2F80E3A3A
:1035A000A2F8103AA2F8123A704700006CEC002022
:1035B00070B505462C4605E0217A2022105D01F009
:1035C000B7F82468002CF7D12C4603E0204602F01F
:1035D000F3FA2468002CF9D170BD000010B5012168
:1035E000044800F05FF818B10121024800F048F8E3
:1035F00010BD0000000C00400EB501210820FFF7AF
:10360000A5FD4FF6FF70ADF804004720ADF80000AF
:103610000020ADF806001020ADF80200694606480B
:1036200000F05EF801221146034800F04CF8012139
:10363000014800F028F80EBD000C00400EB5012135
:103640000820FFF783FD4FF6FF70ADF80400472018
:10365000ADF800000020ADF806001020ADF8020023
:103660006946064800F03CF801221146034800F084
:103670002AF80121014800F006F80EBD000C0040B8
:10368000CA430282704721B1028842F001020280DF
:1036900004E002884FF6FE731A400280704701462C
:1036A000888C704730B50246002000230024158A1C
:1036B00005EA0103958905EA010413B10CB1012063
:1036C00000E0002030BD10B51AB183890B4383811F
:1036D00004E08389CC43A4B22340838110BD000061
:1036E000002202881D4B98420ED01D4B98420BD0F1
:1036F000B0F1804F08D01B4B984205D01A4B98422E
:1037000002D01A4B984204D14FF68F731A404B885F
:103710001A43174B984207D0164B984204D04FF6E5
:10372000FF431A40CB881A4302808B8883850B881D
:1037300003850A4B98420BD0094B984208D00E4B98
:10374000984205D00D4B984202D00D4B984201D1C2
:103750000B7A03860123838270470000002C01400E
:10376000003401400004004000080040000C00400C
:10377000001000400014004000400140004401409F
:10378000004801407047000008B540F22551454807
:1037900000F01FF9F0B140F22551424800F0A1F8C5
:1037A000404800F0D1F940490880084601883F4868
:1037B00002880088401C3D4B18803D4820F81210BC
:1037C000184600884FF4967190FBF1F201FB12004D
:1037D0001946088035480088401E354931F81000E8
:1037E0005A2804D131480088401E324908803048A8
:1037F0003049098830F811005A2811D12B48008827
:10380000401E2B4931F81000A52809D1274800880F
:1038100028490988401A284908800120274908704A
:103820000821204800F0D5F8012806D108211D48BC
:1038300000F04EF81B4800F087F92048007878B374
:103840001B484088C0B263280CD119488088C0B298
:103850006D2807D11648C088C0B2642802D1012063
:103860001749087012484088164908601048808837
:103870001549086013480068144908701248006828
:10388000487001208870C87008460068009001F0F8
:103890006BFB00200749088004490880074908702D
:1038A00008BD000000440040520100205A010020E1
:1038B000E8D90020480100204C0100204A010020E6
:1038C0004F0100204C0000204E0000205601002037
:1038D00001F40072B2F5007F00D100BFCA4302803C
:1038E000704710B500220023A1F510646A3C00D196
:1038F00000BF0A1201249440A3B2DC43048010BD2F
:1039000021B1828942F40052828104E082894DF61D
:10391000FF731A408281704700B585B001212120D4
:10392000FFF724FC01214804FFF710FC01210820C7
:10393000FDF76EFC2020ADF8100018208DF8130064
:1039400003208DF8120004A91948FDF7D7FB402089
:10395000ADF8100004208DF8130003208DF812003C
:1039600004A91348FDF7CAFB4FF4E1300090002092
:10397000ADF80400ADF80600ADF80800ADF80C0095
:103980000C20ADF80A0069460A4800F071F84021A1
:103990000848FFF79DFF012240F22551054800F03D
:1039A00042F801210348FFF7ABFF05B000BD00005E
:1039B000001401400044004002460020B1F5007FA1
:1039C00000D100BF13880B4201D0012000E000208D
:1039D000704770B502460024002300250020A1F5A1
:1039E00010666A3E00D100BFC1F3421501F01F030B
:1039F000012606FA03F3012D02D19689334006E031
:103A0000022D02D1168A334001E0968A33400C120F
:103A1000012606FA04F41688344013B10CB10120D3
:103A200000E0002070BDF0B503460024002600250C
:103A30000020A1F510676A3F00D100BF1846C1F30E
:103A4000421401F01F06012707FA06F5012C01D1E7
:103A50000C3004E0022C01D1103000E014301AB117
:103A600007682F43076002E00768AF430760F0BDB7
:103A70002DE9F04786B005460E460024A24600BF59
:103A8000A1460027B08900B100BF2F462C8A4CF612
:103A9000FF700440F08804432C82AC894EF6F3108A
:103AA0000440B08831890843718908430443AC81DC
:103AB000AC8A4FF6FF400440B0890443AC8201A8B1
:103AC000FFF764FB1F48874202D1DDF810A001E038
:103AD000DDF80CA0A88910F4004F08D00AEBCA004A
:103AE00000EB0A1031684900B0FBF1F807E00AEB7F
:103AF000CA0000EB0A1031688900B0FBF1F86420BD
:103B0000B8FBF0F004012009642101FB1089A889A9
:103B100010F4004F08D0322000EBC900B0FBF1F0E8
:103B200000F00700044308E0322000EB0910642194
:103B3000B0FBF1F000F00F0004432C8106B0BDE8AB
:103B4000F08700000038014001468888C0F3080073
:103B50007047C1F308028280704700BFFEE7000093
:103B60000FB4054B10B503A9044A029800F0C2F83F
:103B700010BC5DF814FB0000E55700087001002040
:103B800002E008C8121F08C1002AFAD17047704726
:103B9000002001E001C1121F002AFBD17047000084
:103BA0002DE9FF5FDDE90210020DDDF838B00143B9
:103BB0000FD10F9801244AA3012807D000980F9A2B
:103BC000C0E90031C0E90242BDE8FF9F6FEA0B0186
:103BD000F4E7A2F2FF3244F61050424315140F9856
:103BE00001280FD0A5EB0B00401C4FF000043D4E08
:103BF000DFF8F490B0F1000AA046C0F1000717DB2F
:103C0000074615E0CBF10000EFE7F80707D02246A2
:103C1000334640464946FCF747FC804689462246E3
:103C2000334620463146FCF73FFC04460E467F10E3
:103C3000002FEAD1DDE90201BAF1000F42464B46FE
:103C400002DAFCF731FC01E0FCF79FFC04460E466B
:103C50000022264BFCF720FD03D84FF0FF30014631
:103C600007E00022224B20463146FCF778FBFCF7A8
:103C7000FBFC102409E0002C0ADB0A220023FCF7DD
:103C80003BFB019B30321A55641E50EA0102F2D10F
:103C9000641C019AC4F1110314440F9A012A07D03D
:103CA0000122084301D15B450DDD00226D1C0DE0B2
:103CB000084303D1A3EB0B056D1E09E000204FF074
:103CC000110B0F908BE701DA00226D1E002A86D0BF
:103CD00000980F99C0E90231C0E9004574E700007F
:103CE00030000000000024400000F03F0000F043DE
:103CF0000000E03F2DE9FF4F95B006469A460F467B
:103D00000025F2E1252879D10024761CFB4AA04643
:103D1000012106943378203B01FA03F0104202D0CF
:103D20000443761CF6E730782A2811D06FF02F0272
:103D30003078A0F13001092915D8069944F0020421
:103D400001EB810102EB41010844761C0690EFE78C
:103D500001CF0690002803DA404244F40054069054
:103D600044F00204761C30782E2817D116F8010F83
:103D700044F004042A280ED06FF02F023078A0F10E
:103D8000300109290AD808EB880102EB410100EB58
:103D90000108761CF2E757F8048B761C30786C2803
:103DA0000FD006DC4C2817D068280DD06A2814D113
:103DB00004E0742810D07A280FD10DE044F40014E8
:103DC0000AE044F4801401E044F440147178814224
:103DD00002D1761C04F58014761C3078864666285D
:103DE0000BD013DC582872D009DC002870D045288D
:103DF000F6D04628F4D047281AD195E118E0632878
:103E000031D0642874D0652812D18DE170286ED02D
:103E100008DC6728F1D069286AD06E280DD06F2899
:103E200006D1A8E0732827D0752874D0782873D0DD
:103E30005246179990476D1C55E1C4F30250022871
:103E400006D003280AD0042801CF0AD005604AE131
:103E500001CF4FEAE571C0E9005144E101CF05808F
:103E600041E105703FE101CF8DF8000000208DF8A1
:103E70000100EB46012003E057F804BB4FF0FF3090
:103E800061074FF0000102D40DE009F101018946FC
:103E900041450FDA8145F8DB1BF809100029F4D100
:103EA00008E009F1010189468142FADB1BF809109B
:103EB0000029F6D106985346A0EB0900804621461A
:103EC000179A00F094FA284400EB090506E047E051
:103ED0000FE11BF8010B524617999047B9F1010900
:103EE000F7D2534621464046179AF9E000E039E000
:103EF0000A21C4F302524FF0000B0091022A04D0B1
:103F000001CFC117032A08D009E0FF1D27F00707DA
:103F1000F7E8020107E01CE01DE000B2C117042A27
:103F200001D140B2C117002906DA0A4600214042F9
:103F300061EB02012D2202E0220504D52B228DF82F
:103F40000420012203E0E20701D02022F7E7914696
:103F500053E00A2110E010204FF0000B00900EE01B
:103F6000102109E010204FF0000B44F004044FF042
:103F70000808009003E008214FF0000B0091C4F303
:103F80000252022A04D001CF0021032A06D007E002
:103F9000FF1D27F00707F7E8020105E080B20021C6
:103FA000042A01D1C0B200214FF00009220724D514
:103FB000BEF1700F2AD0009B83F0100353EA0B036D
:103FC00009D150EA010206D030228DF804208DF884
:103FD00005E002229146009B83F0080353EA0B039D
:103FE0000BD150EA010201D1620706D530228DF8CB
:103FF00004204FF00109A8F1010841A2BEF1580FB9
:1040000000D044A203920FAA02920FE040228DF842
:1040100004200122DEE75B46009AFCF76DF9039B62
:104020009B5C029AA2F101020292137050EA010213
:10403000F1D1029807A9A1EB000000F1200B600765
:1040400002D524F4803401E04FF0010800204146FD
:104050005A46D84501DDA1EB020000EB0B010090B0
:1040600006984944A0EB01000690E00306D45346AD
:104070002146179A069800F0BAF90544002008E096
:1040800001A8524610F80800179990476D1C08F1D6
:10409000010080464845F3DBE0030CD5534621463A
:1040A000179A069800F0A3F9054404E03020524620
:1040B000179990476D1C0099481E00900029F5DC67
:1040C00008E00298029952460078491C029117991B
:1040D00090476D1CBBF10001ABF1010BF1DC67E116
:1040E00000F072F9054406F10106307800287FF4EB
:1040F00009AE19B02846BDE8F08F0000092801007C
:10410000303132333435363738394142434445460D
:1041100000000000303132333435363738396162CF
:104120006364656600000000600701D44FF0060874
:1041300007F1070727F00707A0A1F7E8020C0CF02A
:1041400000431A0007D19EA1220504D49DA1E207D5
:1041500001D1AFF2440112912CF0004C7146BEF136
:10416000650F0ED007DC45290BD0462920D0BEF1C3
:10417000470F3DD13DE066291AD0BEF1670F37D118
:1041800037E0002311224146B8F1110F00DA4A1C32
:10419000CDE900230246634607A902A8FFF700FD08
:1041A000012000904FF0000B08F10109039868E02E
:1041B0004FF000410F910123CDE900830246634691
:1041C00007A902A8FFF7ECFCDDE904904FF0000B13
:1041D00020B9039908F1010001EB0009B8EB0900CF
:1041E00003D4C0F1FF3B08F10109A9EB08000090DE
:1041F00048E04146B8F1010F01DA01218846002369
:104200001122B8F1110F00DC0A46CDE90023024665
:10421000634607A902A8FFF7C3FC4FF0000BC14695
:1042200020070FD40499414503DA894601E0A9F13A
:104230000109B9F1010F05DD0299A9F10100085C3E
:104240003028F4D00399414502DA11F1040F03DA62
:1042500001200F91009015E0002903DC8B44A9EBAD
:10426000010005E0481C484503DD039800F101000A
:1042700081460399A1EB0B0000F1010000904FF083
:1042800000400F90200705D40098484502DB4FF00E
:10429000FF30009000210F980DF147088DF847106E
:1042A000B0F1004F26D0022001902B2013900F98E0
:1042B00000280CDA40420F902D20139007E00A21CD
:1042C0000F98FCF703F830310F9008F8011D0199A1
:1042D000481E01900029F2DC0F980028EFD1A8F1C8
:1042E000010213991170317801F0200141F045016C
:1042F00008F8021D10A9A1EB080000F107000190C9
:104300001298007800B1012000EB0901009801EB40
:10431000E071019801440698A0EB0100A0F10100B2
:104320000690E00306D453462146179A069800F0FB
:104330005EF805441298007820B1524617999047CC
:1043400005F10105E00322D553462146179A069848
:1043500000F04DF805441AE0BBF1000F07DB0499AB
:10436000594504DD029911F80B00179901E01799DE
:1043700030205246904700986D1C401E0BF1010BF7
:10438000009004D12E205246179990476D1CB9F128
:104390000001A9F10109DFDC05E018F8010B524624
:1043A000179990476D1C0199481E01900029F4DC73
:1043B00053462146179A069892E600002D00000009
:1043C0002B000000200000002DE9F04104460025EC
:1043D00017461E46880405D406E039462020B0471B
:1043E00005F10105641EF8D52846BDE8F0812DE9E8
:1043F000F04104460025302790461E46C80300D4ED
:104400002027880405D506E041463846B04705F127
:104410000105641EF8D52846BDE8F08170B5054653
:104420000E46242001F044FB044614B96FF004004A
:1044300070BD257203F034F8606004F11701304656
:1044400000F06CF90A48006850B90948046000207F
:104450002060002207494FF4FA6003F025F804E0D9
:10446000034800682060024804600020E0E7000084
:104470006401002091440008024601207047024672
:104480000120704710B5044602F046FD10BD000043
:1044900010B5044600F01EF90548006830B100224E
:1044A000AFF213014FF4FA6002F0FEFF10BD0000FE
:1044B00064010020F0B502460D4600242D4E3668FA
:1044C00006B9F0BD2B4E36683668F6B9294E366807
:1044D000367A964240D1274E3468274E36683EB928
:1044E000244E3668244F3E600026224F3E6033E063
:1044F000214E36681F4F3F683E601E4E36681E4F85
:104500003E6000261B4F3E6026E01A4E336830683E
:104510001FE0067A96421AD10446164E3668B0421B
:1045200005D1144E36683668124F3E6001E00668C9
:104530001E60114E366826B90F4E306000260660A8
:1045400004E00D4E366806600B4E306003E0034613
:1045500000680028DDD100BF4CB1002105E06F5C90
:1045600004F1090677544E1CF1B20E29F7DB00BFA7
:10457000A7E70000640100206801002070B5114821
:104580000478114800EBE400007804F007020121F0
:10459000914008430C4901EBE40108700948007898
:1045A000401CC5B208E0284603F07AF810B9054867
:1045B000057003E0681CC5B2202DF4DD00BF204665
:1045C00070BD00005C0100205D01002010B5C82016
:1045D00002F0B8FE144908600846006810B913A03C
:1045E000FFF7BEFAC82002F0ADFE1E49086008467B
:1045F000006810B91CA0FFF7B3FAC82002F0A2FEB1
:10460000254908600846006810B924A0FFF7A8FAF9
:10461000FEF7F2FF1348016803480068FEF7B8FF91
:1046200001F036F910BD00003C0000206170705FA1
:10463000696E697428293A6572726F722C7374728C
:1046400065616D696E675F646174615F72656376F1
:104650005F6D626F78206973204E554C4C2E0D0AA9
:1046600000000000400000206170705F696E697496
:1046700028293A6572726F722C636D645F7265707F
:104680006C795F726563765F6D626F782069732005
:104690004E554C4C2E0D0A00440000206170705F96
:1046A000696E697428293A6572726F722C7570632D
:1046B0006F6D70757465725F636D645F726563764C
:1046C0005F6D626F78206973204E554C4C2E0D0A39
:1046D000000000002DE9F0410F48046818E002F0E6
:1046E000DFFE05466068A84202D860682F1A03E022
:1046F0006068C0F1FF30471940F6B830874206D9EC
:10470000267A304600F042F9304600F0E3F824689B
:10471000002CE4D1BDE8F0816401002002460020B5
:1047200003E0135C0B54431CD8B20A28F9DB704732
:1047300070B505460E46314633A0FFF711FA3A48E8
:1047400090F8081A90F8080A401CC2B2364880F85F
:10475000082A01EB810000EBC100344901EB001491
:104760006670A570012001F01BFC60602E4AD2F833
:10477000001A606802F0D6FB606810B96FF00200A2
:1047800070BD0022FF21606801F0D2FB002231469B
:10479000606801F0E9FB032001F002FCE060E068E2
:1047A00028B923A0FFF7DCF96FF00200E8E7002248
:1047B000FF21E06801F0BCFB00223146E06801F017
:1047C000D3FB022001F0ECFBA060174AD2F8041AD8
:1047D000A06802F0A7FBA06828B91EA0FFF7C0F9E7
:1047E0006FF00200CCE70022FF21A06801F0A0FBDF
:1047F00000223146A06801F0B7FB002020700120A4
:1048000020700020BCE700006372656174655F542E
:1048100042494D28293A6372656174652074626962
:104820006D2025642E0D0A006CEC00206CDC00204D
:104830006372656174655F5442494D28293A746416
:104840007020636F6E6E206973204E554C4C2E0D98
:104850000A0000006372656174655F5442494D2827
:10486000293A73647020636F6E6E206973204E5511
:104870004C4C2E0D0A00000008B5014600208DF8B2
:1048800000008DF801008DF802008DF8030001F0A2
:1048900007F818B100200870009808BD0C4842784D
:1048A000C01C00EB82000068009009484078401C62
:1048B0000A2290FBF2F302FB1300054A507001201C
:1048C000087010460078401E10700098E5E7000060
:1048D0000010002009490978814201DB074908706E
:1048E000074901EBE001097800F0070301229A4033
:1048F0009143034A02EBE002117070475C01002013
:104900005D01002070B5002437E004EB840000EB6B
:10491000C4001B4901EB0010407868B302F01AFB99
:1049200000251BE004EB840101EBC401144A02EBF7
:104930000111487802F0A2FE04EB840000EBC400F1
:104940000F4901EB001040780E49087000BF00F0DD
:10495000D3FF0028FBD002F0FDFA6D1C642DE1DBD3
:1049600004EB840101EBC401054A02EB0111487814
:104970000549096802F076FE641C202CC5DB70BD79
:104980006CDC002007010020F400002070B5054613
:104990001448006800B970BD12480068006860B92A
:1049A00010480068007AA84219D10E48006801F04A
:1049B00003F900200B49086011E00A480668006806
:1049C00004680AE0207AA84205D1206830602046B9
:1049D00001F0F2F8DFE726462468002CF2D100BF90
:1049E000D9E700006401002010B50446206890F962
:1049F000080010F1080F03DA2068007A207127E020
:104A0000FD2020712068406810B3206800780128DC
:104A100004D002280AD0032818D10FE0627A217A44
:104A20002368586800F066F8207110E0627A217AF5
:104A30002368586801F02AFE207108E0627A217A22
:104A40002368586802F03AFE207100E000BF00BF02
:104A50002168C86802F0DCFC10BD10B5044620686F
:104A6000406810B9F720207124E020680078012800
:104A700004D002280AD0032818D10FE0627A217AE4
:104A80002368586800F052F8207112E0627A217AA7
:104A90002368586801F016FE20710AE0627A217AD4
:104AA0002368586802F02EFE207102E0FD2020717C
:104AB00000BF00BF2168C86802F0AAFC10BD10B595
:104AC000044600F0A1FE207300F0AAFE2061A06859
:104AD00002F09EFC10BD10B5044600202071206835
:104AE000406810B9204601F053FC2168C86802F004
:104AF0008FFC10BD30B503460C4600250A480168FE
:104B000004E0994201D1012502E009680029F8D1A9
:104B100000BF5C71DA7125B903480068186002486B
:104B20000360002030BD0000F000002010B50346F7
:104B30000C469C711A72187940F0010018710848EF
:104B4000016804E0994201D1002010BD09680029E4
:104B5000F8D1034800681860014803600020F4E7BA
:104B6000F00000202DE9F04F87B0804684480068AF
:104B700050B984A0FEF7F4FF404601F05EFB6FF0F1
:104B8000030007B0BDE8F08FD8F804402078871004
:104B9000062F0FD077B1042F0CD0052F0AD088A094
:104BA000FEF7DEFF404601F048FB02F0DAF96FF055
:104BB0000200E6E760780121B1EB201F0AD090A047
:104BC000FEF7CEFF404601F038FB02F0CAF96FF065
:104BD0000200D6E76088000A6188C9B240EA01266F
:104BE00006EBD6714910B6EB410101D1B14602E0A6
:104BF000701C1FFA80F9B8F8080048450EDA8FA03B
:104C0000FEF7AEFFB8F80820494697A0FEF7A8FFC8
:104C1000404601F012FB6FF00200B2E704EB09001E
:104C2000801E029002980088A0F57F41FF390DD0C8
:104C30004946204600F028FE40B197A0FEF790FFBD
:104C4000404601F0FAFA6FF002009AE74946404602
:104C500001F05EFBA11D201DFFF70EFC40B996A0E0
:104C6000FEF77EFF404601F0E8FA6FF0020088E7A9
:104C70000020049001200390A088000AA188C9B2F6
:104C800040EA01204FEA202AA088000AA18840EAD1
:104C90000120C0B20690E088000AE188C9B240EA6B
:104CA00001204FEA202BE088000AE18840EA012039
:104CB000C0B205906FF00901404601F0F4FA40B12E
:104CC00085A0FEF74DFF404601F0B7FA6FF00200F5
:104CD00057E7584600F016FEF8B1294805680EE07F
:104CE000E86858B100200390DDE90523CDE90032E2
:104CF000534642462946D5E903C0E0472D68002DBA
:104D0000EED1039838B17DA0FEF72AFF404601F0AE
:104D100094FAE81E35E7002033E71948056809E0F2
:104D20006879584505D1A879504502D101200490F1
:104D300002E02D68002DF3D100BF049840B976A0A1
:104D4000FEF70EFF404601F078FA6FF0020018E718
:104D5000E86858B1DDE90523CDE900325346424603
:104D60002946D5E903C0E04700200AE770A0FEF716
:104D7000F7FE404601F061FA6FF0020001E7000023
:104D8000F000002064705F696E70757428293A2005
:104D900064656C6574652064702064617461206270
:104DA000656361757365207468652064705F706306
:104DB00062206973204E554C4C2E0D0A00000000F5
:104DC00064705F696E70757428293A206470207071
:104DD00061636B65742064726F70706564206475C4
:104DE0006520746F206261642070726F746F636FEE
:104DF0006C206964656E7469666965722E0D0A00BF
:104E000064705F696E70757428293A6470207061EF
:104E1000636B65742064726F70706564206475657F
:104E200020746F206261642070726F746F636F6CA6
:104E30002076657273696F6E2E0D0A0064705F696B
:104E40006E70757428293A6470207061636B6574A4
:104E5000206973206C6F6E676572207468616E20C4
:104E6000706275662E0D0A0064705F696E707574ED
:104E700028293A64705F646174615F7061645F6C7B
:104E8000656E3D25642C702D3E746F745F6C656E8D
:104E90003D25642E0D0A000064705F696E707574A4
:104EA00028293A636865636B73756D206661696C68
:104EB00065642E0A0000000064705F696E7075748E
:104EC00028293A6470206164647265737320657286
:104ED000726F722E0A00000064705F696E707574E4
:104EE00028293A706275662068656164657220667B
:104EF00061696C65642E0D0A0000000064705F69D2
:104F00006E70757428293A2064656C65746520702C
:104F10006275662E0D0A000064705F696E707574AC
:104F200028293A206865726531330D0A00000000B7
:104F300064705F696E70757428293A2068657265BF
:104F400031342E0D0A00000010B5002000F01CFFC7
:104F500004461CB114212046FBF796F9204610BDEB
:104F6000C16002617047000001B500F0A3FC20B1F0
:104F70000EA0FEF7F5FD002008BD0F480078401C8C
:104F80000D49087008468178C01C00EB810000992B
:104F9000016009488078401C0A2190FBF1F201FB76
:104FA0001200054988700120E6E70000512066756F
:104FB0006C6C2E0D0A0000000010002001207047CC
:104FC0002DE9F74F86B015460026B146B246B346E6
:104FD0000020039002900190284600F057F910B984
:104FE00009B0BDE8F08F68680590686800F11104A9
:104FF0002078012802DB2078132826DB14F8041D12
:1050000053A0FEF7ADFD617851A0FEF7A9FDA17890
:105010004FA0FEF7A5FDE278217951A0FEF7A0FD93
:10502000617958A0FEF79CFDA17956A0FEF798FD86
:10503000E17904F1040453A0FEF792FD55A0FEF7B8
:105040008FFD284601F0F9F8CAE72078022804D03D
:1050500004281ED00C2870D12CE0686800F11108DB
:10506000FFF78CFA04905AA00499FEF779FD08F135
:1050700001010498FFF7D2F900B162E008F10102E2
:105080000499069801F0D4FC10B15AA0FEF768FD0F
:1050900057E0686800F11207387800F01FFC20B96B
:1050A000397861A0FEF75CFD4BE03878791CFFF79A
:1050B00001FA46E067488079E8BB012065498871BC
:1050C000641C2646D6F80090361DD6F800A0361D82
:1050D000D6F800B0361D6048FEF7E1FA0390D345DC
:1050E00002D2ABEB0A0004E0ABF57F40FF38A0EB47
:1050F0000A0002900398484503D20398A9EB0000E8
:1051000004E04FF6FF710398081A48440190DDE966
:10511000011008444108514802780078401C4F4B68
:1051200018704F4840F8221018460078642802D1C1
:1051300000201946087004E0FFE74AA0FEF710FDC2
:1051400000BF00BF284601F078F800BF48E7000024
:10515000707265762069732025642E0D0A000000A8
:105160006572726F72206D736720636F646520696A
:10517000732025642C707265762069732025642E57
:105180000D0A000061667465722069732025642E23
:105190000D0A00006574686263705F696E707574F3
:1051A00028293A696E636F72726563742062757341
:1051B000206D616E6167656D656E74206D657373DA
:1051C0006167657320636F64652E0D0A000000003F
:1051D0006574686263705F696E70757428293A61DE
:1051E0006C6C6F6320616C69617320697320256446
:1051F0002E0000006574686263705F696E7075747C
:1052000028293A5442432073656E642061737369A0
:10521000676E20616C696173206D736720666169D8
:105220006C65642E0D0A00006574686263705F69C6
:105230006E70757428293A4552524F5228756E6B1C
:105240006E6F776E20616C696173202564292E0D65
:105250000A00000000010020000C0040F8000020BF
:10526000042100206574686263705F696E707574F4
:1052700028293A696E636F72726563742062637085
:1052800020747970652E0D0A0000000070B5054687
:105290006C68A08918B9E07B08B9207C60B1FFF781
:1052A0008DFE48B905A0FEF75BFC284600F0C5FF5F
:1052B00001F056FE002070BD0120FCE765746862B5
:1052C00063705F696E7075745F636865636B2829CE
:1052D0003A696E636F7272656374206461746120F1
:1052E0006672616D652E0A002DE9F04707460E468D
:1052F000914698460E21304600F0D5FF90B100222D
:105300000E21032000F0B4FE054635B919A0FEF7C2
:1053100027FC6FF00100BDE8F0873146284600F019
:1053200081FF00E035466C684020207084F80190D1
:105330000020A070E070207160714020A071397D64
:10534000E171002121726172A172E17208F0FF0027
:105350004FEA182141EA0020A08129463846FA6820
:1053600090478246B54203D0284600F066FF0024ED
:105370005046D0E7706275665F6865616465722843
:10538000293A636F756C64206E6F7420616C6C6F6A
:105390006361746520726F6F6D20666F722068653F
:1053A000616465722E0D0A0008B501214FF4E030EA
:1053B000FDF7ACFE01217D20FDF7D8FE0420ADF8FD
:1053C000000003208DF8020018208DF803006946C4
:1053D0005148FBF793FE0620ADF8000003208DF83E
:1053E000020018208DF8030069464C48FBF786FE42
:1053F00043F62010ADF8000003208DF802001820BD
:105400008DF8030069464648FBF778FE01214FF00E
:105410002010FBF7FDFE0B20ADF8000003208DF8F7
:10542000020004208DF8030069463B48FBF766FE46
:105430004FF48060ADF8000003208DF802000420D6
:105440008DF8030069463648FBF758FEC020ADF8DA
:10545000000003208DF8020014208DF80300694637
:105460002F48FBF74BFE0820ADF8000003208DF815
:10547000020004208DF8030069462848FBF73EFE31
:105480004FF4F850ADF8000003208DF8020004201E
:105490008DF8030069462348FBF730FE4FF40050B7
:1054A000ADF8000003208DF8020010208DF80300F5
:1054B00069461C48FBF722FE4FF48040ADF800001F
:1054C00003208DF8020010208DF80300694615486E
:1054D000FBF714FE4FF40040ADF8000003208DF8F8
:1054E000020010208DF8030069460E48FBF706FE07
:1054F0004FF48070ADF8000003208DF802001820F2
:105500008DF8030069460448FBF7F8FDFBF7A0FDA2
:10551000FBF727FF08BD0000000801400010014014
:10552000000C0140001401402DE9F04104460D46F5
:1055300060890E2808DC34A0FEF712FB204600F03C
:105540007CFE0020BDE8F0816668B089000AB18960
:10555000C9B240EA0127B7F5006F24D0A7F5006073
:10556000023806D004280BD0A0F5F040FE3840D118
:1055700029E0224605F119012846FFF721FD3FE009
:105580006FF00D01204600F08EFE38B12BA0FEF723
:10559000E7FA204600F051FE002403E029462046A9
:1055A000FFF7E0FA2CE06FF00D01204600F07BFEE3
:1055B00020B1204600F041FE002403E029462046A9
:1055C00001F09CF81CE028A0FEF7CAFA6FF00D016C
:1055D000204600F068FE20B1204600F02EFE002498
:1055E00006E02BA0FEF7BCFA2946204602F0A6F8FA
:1055F00006E031A0FEF7B4FA204600F01EFE00BF20
:1056000000BF00209EE7000065746865726E6574D7
:105610005F696E70757428293A74686520657468CE
:1056200065726E6574206672616D652069732074A1
:105630006F6F20736D616C6C2E0A00006574686575
:10564000726E65745F696E70757428293A62616460
:1056500020647020646174612064656C65746520E9
:1056600069742E0D0A00000065746865726E6574B9
:105670005F696E70757428293A67657420747020AC
:105680007479706520646174612C0D0A000000005B
:1056900065746865726E65745F696E7075742829CB
:1056A0003A67657420726967687420747020646159
:1056B00074612C0D0A00000065746865726E657473
:1056C0005F696E70757428293A696E636F727265CE
:1056D00063742065746865726E6574207479706592
:1056E0002E0D0A0070B5044600BF14B90FA0FEF7D6
:1056F00037FA00BF042000F0DBF9054615B96FF05A
:10570000040070BD2561682084F8200077212120E5
:1057100001551048A0601048E06004F119002860AD
:10572000204600F005F90020EBE70000657468658D
:10573000726E657469665F696E697428293A65726C
:10574000726F722C6E657469663D3D4E554C4C0A05
:1057500000000000E9520008115A00082DE9F0414C
:105760000446FAF711FD0746204600F01DF90646EB
:105770003846FAF70DFD1EB96FF00400BDE8F08160
:105780002146304662689047054635B104A0FEF7D1
:10579000E7F9304600F051FD00262846EEE700000C
:1057A00065746865726E657469665F696E7075743C
:1057B00028293A696E707574206572726F722E0DA9
:1057C0000A00000002460648016805E0087A904297
:1057D00001D10846704709680029F7D10020F9E790
:1057E0006401002070B504460D46E1B20548FEF79D
:1057F000B0F900BF40210348FEF7DEF80028F9D0D9
:10580000204670BD00440040014800787047000009
:10581000F90000200148006870470000680100207E
:1058200010B5FFF7F7FF044614B902A0FEF798F988
:10583000204610BD6765745F646F6E655F6C697349
:105840007428293A656D707479206C6973742E0A16
:105850000000000010B586B0002001F0D1FD0390DB
:10586000002105918DF8101004480090684601F061
:1058700097FB0446059806B010BD0000BF4A00081B
:1058800010B5FFF791FD10BD0246002070470000E3
:10589000002002494870887008707047001000208E
:1058A0000348007808B9012000E00020C0B270472A
:1058B0000010002008488078401C0A2190FBF1F27B
:1058C00001FB120004494978884201D1012000E01F
:1058D0000020C0B2704700000010002070B50446E0
:1058E00000252046FFF76EFF05460DB1012000E0C0
:1058F0000020C0B270BD00000148807970470000F0
:1059000000010020014609B9012000E00020C0B2DA
:105910007047014609B9012000E00020C0B270477D
:10592000014609B9012000E00020C0B27047000024
:1059300070B5054606202876002406E01548015D6E
:1059400005F119000155601CC4B2062CF6DB40F2CB
:10595000DC50E882FAF718FC064602220E490F488E
:10596000FBF722F804220E490E48FAF7D5FF00246F
:1059700007E00C4901EB04100121FAF7F7FF601C66
:10598000C4B2042CF5DB3046FAF702FCFBF79AFAB6
:1059900070BD000008010020C03A0020E022002075
:1059A00000230020A02200202DE9FE43814600268E
:1059B00000256846FBF72EFA009887B2DDF80480D0
:1059C00003223946104600F053FB054665B12C46CC
:1059D00008E0628908EB06016068FAF73CFC608920
:1059E00006442468002CF4D14FF00040029908606E
:1059F0000648406910F0800F04D0802003494861B8
:105A0000002088602846BDE8FE8300000090024028
:105A10002DE9F04781460E4600250027FAF7B4FB32
:105A20008046FBF705F80746344607E06289781997
:105A30006168FAF710FC608905442468002CF5D1F0
:105A4000A8B2FBF7A1FA4046FAF7A2FB0020BDE896
:105A5000F087000000B587B09DF818000690FAF7AF
:105A6000E5FBFBF7E7FD0323002240210B48CDE9CE
:105A70000323CDE90101012300F1FC0200210848C4
:105A80000093FCF70FFB069006AA06A10120FCF785
:105A900073FBFCF763FA002007B000BD740100201F
:105AA0008F0800085374617274205461736B000096
:105AB0002DE9F047054615B90020BDE8F087E81C40
:105AC00020F003050C2D00D20C25B5F5205F01D97F
:105AD0000020F2E700213448006801F0AFFB3348B2
