:020000040800F2
:10000000A0FD002065010008CD1300089310000832
:10001000CB130008A70800086D340008000000009A
:10002000000000000000000000000000BD2C0008DF
:10003000A908000800000000CB010008852D000879
:100040007F0100087F0100087F0100087F01000890
:100050007F0100087F0100087F0100087F01000880
:100060007F0100087F0100087F0100087F01000870
:100070007F0100087F0100087F0100087F01000860
:100080007F0100087F0100087F0100087F01000850
:100090007F0100087F0100087F0100087F01000840
:1000A0007F0100087F0100087F0100087F01000830
:1000B0007F0100087F0100087F0100087F01000820
:1000C0007F0100087F0100087F0100087F01000810
:1000D0007F010008A53200087F0100087F010008A9
:1000E0007F0100087F0100087F0100080000000078
:1000F0000000000000000000000000000000000000
:100100000000000000000000093100087F01000825
:100110007F0100087F0100087F0100087F010008BF
:100120007F0100087F0100087F0100087F010008AF
:100130007F010008350A00087F0100087F010008E0
:100140007F0100087F0100087F0100087F0100088F
:10015000DFF80CD000F026FB00480047F5530008FC
:10016000A0FD00200648804706480047FEE7FEE75E
:10017000FEE7FEE7FEE7FEE7FEE7FEE7FEE7FEE757
:10018000A92D000851010008EFF3108072B67047E6
:1001900080F3108870471D484FF0FF010170002068
:1001A00080F309881A48012101701A484FF08051E4
:1001B000016062B6FEE717484FF08051016070475A
:1001C00014484FF080510160704772B6EFF3098018
:1001D00028B1203880E8F00F0F490968086000B5A1
:1001E0000E4880475DF804EB0D480E490A7802700E
:1001F00009480D490A680260106890E8F00F203045
:1002000080F309884EF0040E62B6704722ED00E0DC
:100210006F00002004ED00E088000020B5200008F9
:100220006C0000206D0000209000002072B6704726
:1002300062B67047EFF3108072B6704780F3108893
:100240007047B0FA80F0704790FAA0F0704730BF66
:10025000704720BF704740EA01039B0703D009E0C5
:1002600008C9121F08C0042AFAD203E011F8013BA2
:1002700000F8013B521EF9D27047D2B201E000F8FB
:10028000012B491EFBD270470022F6E710B5044649
:100290000846114602462046FFF7EFFF204610BDF4
:1002A0002DE9F04D81EA030404F0004B21F00047F2
:1002B00014464FF0000A23F0004150EA070220D014
:1002C00054EA01021DD0C1F30A550246C1F31300DE
:1002D000C7F30A56C7F3130340F4801143F48013A5
:1002E000A6EB0508101BD64608F2FD3873EB01009B
:1002F00002D308F1010801E092185B41B8F1000F48
:1003000003DA00200146BDE8F08D00204FF480158F
:10031000064607460EE0B2EB040C73EB010C04D367
:10032000121B064363EB01032F436D084FEA3000B5
:1003300092185B4150EA050CEDD152EA030012D04D
:1003400082EA040083EA0105284303D100224FF02A
:10035000004308E0101B8B4102D20122002302E07F
:100360006FF0010253101AEB060047EB085110EB37
:100370000A0041EB0B01BDE8F04D00F06FB800F052
:10038000004230F000400DD0C10D01F5607142EA2D
:1003900001510022C0F31600520742EAD002400782
:1003A0001143704700200146704730B50B460146A7
:1003B00000202022012409E021FA02F59D4205D304
:1003C00003FA02F5491B04FA02F52844151EA2F1AE
:1003D0000102F1DC30BD2DE9F05F054600209246B8
:1003E0009B4688460646814640241DE028464146F5
:1003F0004746224600F022F8B0EB0A0052465B4620
:1004000071EB0B0110D310461946224600F0DCF9BF
:100410002D1A67EB01084F4622460120002100F00B
:10042000D3F917EB00094E41201EA4F10104DDDCD5
:10043000484631462A464346BDE8F09F202A04DB61
:10044000203A21FA02F00021704721FA02F3D0404D
:10045000C2F12002914008431946704710B5002BA5
:1004600008DA401C41F1000192185B411A4301D1A6
:1004700020F0010010BD2DE9FF4D934611B1B1FAF6
:1004800081F202E0B0FA80F22032924600F09CF94C
:10049000039A0746884640EA0B0011435B4608432F
:1004A00004D13846414604B0BDE8F08D114653EA08
:1004B000020016D0CAF140025846FFF7BFFF0446BB
:1004C0000D464FF0010658465246039900F07CF95C
:1004D000084300D10026344345EAE675274345EA40
:1004E00008080E984FF00005A0EB0A014FEAD7204C
:1004F0000A314FEA47532A4640EA48504FEAD82487
:1005000002D500200146CEE7281844EB0151DDE971
:100510000C45001904B06941BDE8F04D9EE72DE996
:10052000FE4F074681EA0300C00F0E46019021F0FE
:10053000004123F00044B81AA14105D238463146A3
:1005400017461E460B46024623F00040104304D1D6
:100550003846314603B0BDE8F08F350DC5F30A00CB
:10056000C3F30A510290401A0090402867DAC3F39F
:10057000130040F4801B0198924620B10023D2EB77
:10058000030A63EB0B0B00985946C0F1400250463A
:1005900000F01AF980460C4650465946009A00F081
:1005A00022F9C0197141EF1785EA11533B433FD03F
:1005B000019A4AB3009A012A11DC0022801A61EBE9
:1005C00005514FF0004303EA0555CDE90025801899
:1005D00041F5801142462346FFF74DFFBAE72E054D
:1005E0000025401B61EB0601401941F580120018FF
:1005F00052412818A6F5001343EB020140EAD470DB
:1006000018EB0808644113E064084FEA38084FF01B
:10061000000244EAC0744FEA0553801A61EB0301FB
:10062000801841F5801149084FEA3000801859417F
:100630004246234603B0BDE8F04FFFF70FBF0198D5
:10064000012240000023D0EB020263EBE07301982B
:100650004FEAE074381A66EB0401EBE783F00043DD
:100660005DE781F000415AE72DE9FE4F81EA03047E
:1006700021F0004504F0004423F000414FF0000A4F
:10068000009450EA050302D052EA010304D100208D
:10069000014603B0BDE8F08FC1F30A53C5F30A5415
:1006A0002344A3F2F3330193A0FB02B3C5F3130574
:1006B00045F4801CC1F3130141F480180CFB023394
:1006C00000FB083E810A930A41EA8C5143EA8853B1
:1006D000A1FB03474FEA9C2505FB03734FEA9826CD
:1006E00001FB06373D05260545EA1435BBEB06013F
:1006F0006EEB0503850E920E45EA8C1542EA8812D0
:10070000A5FB0206261E67EB00070C0D44EA033426
:10071000A61947EB1350C1F313044FF00003194619
:10072000E5FB02014FEA033545EA1455019B4FEA08
:100730000432009CA3F10C03CDE900A445EA0605B0
:1007400002932B46FFF797FEA3E7C1F30A52C1F3CA
:10075000130140F2FF3341F480119A4202DA002083
:100760000146704740F233439A42A2F2334202DC20
:100770005242FFF763BE00F027B8000030B50029F1
:1007800004DB4FF00044404264EB0101002B04DB2A
:100790004FF00044524264EB0303994208BF904279
:1007A00030BD0000064C074D06E0E06840F0010354
:1007B00094E8070098471034AC42F6D3FFF7CCFC1E
:1007C000E4790008047A0008202A04DB203A00FAC1
:1007D00002F1002070479140C2F1200320FA03F398
:1007E000194390407047202A06DBCB17203A41FA84
:1007F00002F043EAE07306E041FA02F3D040C2F1AE
:100800002002914008431946704770B501EB02047D
:1008100010F8015B15F0070301D110F8013B2A1114
:1008200006D110F8012B03E010F8016B01F8016B01
:100830005B1EF9D12B0705D40023521E0FD401F8FB
:10084000013BFAE710F8013B02F10202A1EB0303BE
:1008500003E013F8015B01F8015B521EF9D5A142D8
:10086000D6D3002070BD00000623024A00210248B2
:1008700001F070BAE0060020017300087047FFF72E
:10088000F3BF7047704701F027FE01F047FAFFF70A
:10089000F6FF00231A460121184601F041FCF8E753
:1008A000704770477047FEE7704700000149486194
:1008B0007047000000900240044A19B1D169014319
:1008C000D1617047D1698143D16170470090024086
:1008D000054920B1886940F0020088617047886945
:1008E00020F002008861704700900240F0B50023BC
:1008F000104C60604FF0004644F2F057551E14E073
:1009000000EB031426606760C3EB431C0CEB831CF5
:1009100001EB0C1CC4F808C0AB4204D204F1100C6B
:10092000C4F80CC000E0E0605B1C9342E8D30249CD
:10093000C860F0BD4000002000900240426819B13C
:1009400022F000414160704742F000414160704731
:10095000054920B1886940F4005088617047886972
:1009600020F400508861704700900240F0B50023E9
:100970000E4C20604FF48016551E11E000EB03145E
:100980002660C3EB431707EB831701EB0717A7603C
:10099000AB4203D204F11007E76000E0E0605B1CAB
:1009A0009342EBD302490861F0BD000040000020F3
:1009B0000090024010B501218C03204602F0C0F8DF
:1009C0002046BDE81040002102F0BAB800E0401E09
:1009D0000028FCD1704700000248816941F4801171
:1009E000816170470090024001480068806870474C
:1009F000400000200068C0F30D4070470020074908
:100A00004A68116811F0802F06D1CB0504D58905FD
:100A100002D51046FFF7EEBF7047000040000020EF
:100A2000002003490968C90700D001207047000071
:100A30000090024010B5FFF7A7FB0C4A1178491C43
:100A40001170FFF7A5FB02E0094804F0CFFAFFF7A9
:100A5000D5FF0028F8D14020FFF728FF4FF4803061
:100A6000FFF724FFBDE8104000F074BD6A000020CD
:100A700008EF00202DE9F04186B0044688460025A5
:100A8000764F386920F01C0601A802F07DF8029824
:100A90007349744A0144914202D246F0080606E0C6
:100AA000714908447149884201D246F00C063E6102
:100AB0004FF400420021404600F0EEF9A0B16C482E
:100AC000FFF784FF2068A0B36A4E6D1C01214046E9
:100AD00000F00AF9400701D4B542F6D3B54205D17A
:100AE000002006B0BDE8F0810020FAE700254FF4B1
:100AF00080520021404600F0CFF908B90020F0E70D
:100B00006D1C0121404600F0EFF8800601D4B5428B
:100B1000F6D3B54201D10020E3E71021404600F0B2
:100B2000E3F842074FF0000104D54FF4006222625F
:100B300001E008E02162800701D5616114E04FF413
:100B40008040606110E0206A0021C0F3CF0260693C
:100B5000C0F34F000243404600F09EF900287BD0CE
:100B60006FF07F40FFF732FF386843490840D4E90F
:100B700001121143D4E903231A431143626911435B
:100B8000A2691143E2691143226A1143626A114367
:100B9000A26A1143E26A1143226B1143626B114353
:100BA00001433960D4E90E010843D4E9101211431E
:100BB0000843A16C0843E16C0843216D0843616D53
:100BC00008437860A06DB860E06DF860B9694FF6D1
:100BD00041700140D4E919021043236EE26E42EAEB
:100BE00003421043226F1043626F10430843B86101
:100BF000D4E91E010843F86120488169204A114068
:100C0000D4E920231A43D4E922352B431A43D4F8DC
:100C100090301A43D4F894301A43D4F898301A43D9
:100C2000D4F89C301A43D4F8A0301A430A438261A6
:100C3000D4E929121143D4E92B231A431143D4F8E0
:100C4000B42041EA8201D4F8B820114341F40001F4
:100C50000160012045E7FFE7002042E700800240F5
:100C600000D3CEFEC0E1E40040F1E9FD40787D0113
:100C7000FFFF0F00FFFF04000F8120FF00900240E4
:100C8000233FDEF80A794B7942EA0322074B1844E6
:100C900002640A78CB7842EA03628B7849781B04B5
:100CA00043EA01210A434264704700000080024089
:100CB000054920B1086840F00400086070470868E2
:100CC00020F004000860704700800240054920B110
:100CD000086840F0080008607047086820F00800C5
:100CE000086070470080024030B50022104B1C693C
:100CF00004F01C044FF6FF7505EAC02020434FF4B2
:100D0000F86404EA8111014321F0020040F001007F
:100D100018610849521C1869C00701D08A42F9D3EA
:100D20008A4201D1002030BD586980B230BD000038
:100D300000800240FFFF04003EB500240023009322
:100D400001930293114D2A68116800290ADA1049AB
:100D50004A69120602D580224A618B609DE80E0026
:100D60000EC03EBD0B0408D4CB0506D58B0504D5BB
:100D7000C1F30D44241F9168019100940292D1683F
:100D800029609DE80E000EC03EBD0000440000201A
:100D9000009002400248016841F001010160704783
:100DA0000090024000B50120FFF790FFFFF714FE0E
:100DB0000120FFF77DFF0120FFF7CAFD01205DF84C
:100DC00004EBFFF785BD0021016041608160C160D7
:100DD000016141618161C161016241628162C162FF
:100DE000016341638163C163402202642022426443
:100DF0008164C164016541658165C16501668022C8
:100E000042668166C166016741678167C167D20436
:100E1000C0F880205210C0F884205310C0F88830E9
:100E20001311C0F88C30C0F89010C0F89410C0F8BE
:100E30009810C0F89C10C0F8A010C0F8A420C0F80A
:100E4000A8101212C0F8AC205212C0F8B020C0F89E
:100E5000B410C0F8B81070470D4B19680A68002A22
:100E600001DA00207047C0F30C00486042F04050A7
:100E700040F00040086007484269520703D5042249
:100E8000426100224260C86818600120704700007B
:100E9000400000200090024070B50023104C2569EE
:100EA00005F01C054FF6FF7606EAC02028434FF4F4
:100EB000F86505EA8111014341F0020040F00100AC
:100EC0006261206107495B1C2069C00701D08B4229
:100ED000F9D38B4201D1002070BD012070BD00000C
:100EE00000800240FFFF040000B5AFB0012000F019
:100EF00045F84FF4004001F0D7FE012001F0CEFE8E
:100F00003D2001F0ADFE0028FAD00B2001F0C0FE1C
:100F1000FFF750FDFFF73EFFFFF782FD0128FBD0F2
:100F20006846FFF750FF01200090002007904FF423
:100F300000710A910B900E901190139014901590DF
:100F40002090090421910A112392259026900420D3
:100F50002890299180032A9080012B9040122C9098
:100F600040002E9001216846FFF784FD01210248D0
:100F7000FFF7A2FC2FB000BD40000100014908604E
:100F800070470000DC0020422DE9F0410022CC78BF
:100F900004F00F03E40601D58C7823430C884FF04E
:100FA0000F0714F0FF0F4FF0010C1CD005680CFA6E
:100FB00002F40E882640A64211D1960007FA06F8E0
:100FC00025EA080503FA06F848EA0505CE78282E32
:100FD00002D0482E02D002E0446100E00461521CBD
:100FE000082AE4D305600A88FF2A1ED94568002232
:100FF00002F108060CFA06F40E882640A64210D12B
:10100000960007FA06F825EA080503FA06F848EA02
:101010000505CE78282E00D14461CE78482E00D127
:101020000461521C082AE3D34560BDE8F08100004A
:10103000F0B5154C002801DAE36900E06368C0F3FD
:101040000346420D120185B2C0F301579540032FAC
:1010500007D0C2020CD50322B240934343F0706222
:1010600009E023F07062636823F07063636002E05C
:10107000AB4343F0706201B12A43002801DAE26118
:10108000F0BD6260F0BD000000000140806880B2E9
:101090007047FEE700B5084A4023536000F088F926
:1010A0008020506000F084F9136000F081F95360F3
:1010B0005DF804EB00F07CB9100C01402DE9F04123
:1010C00005460C4604F00700C0F10807C2F3C70646
:1010D00002F0070888B1AEB3D01BC0F3C70600F01A
:1010E0000708F7B33A462146284600F08DF800F08D
:1010F0005FF9E019C4B23D4439E096B94246214651
:10110000284600F081F8BDE8F04100F051B908220E
:101110002146284600F078F800F04AF90834E4B295
:1011200008353000A6F10106F6B2F0D1B8F1000F93
:101130002ED042462146284600F066F8BDE8F04130
:1011400000F036B942462146284600F05DF8BDE879
:10115000F04100F02DB908222146284600F054F84D
:1011600000E004E000F024F90834E4B2083530006F
:10117000A6F10106F6B2EED1B8F1000F08D0424652
:101180002146284600F040F8BDE8F04100F010B9D3
:10119000BDE8F081F0B505461446CFB2194EA02047
:1011A000307000F0B7F8A0B1307800F08FF800F0A0
:1011B000E3F880B1384600F089F800F0DDF800F07F
:1011C000A9F8307840F0010000F080F800F0D4F881
:1011D0000FE00020F0BD00F0BBF80020F0BD00F0F3
:1011E00051F82870012C0AD0FFF754FF6D1C641EC3
:1011F000A4B2002CF3D100F0ABF80120F0BD00F058
:101200002DF8F3E72800002070B505460E46144679
:1012100000F080F858B1A02000F058F800F0ACF8C9
:1012200038B1F0B200F052F800F0A6F80BE0002060
:1012300070BD00F08DF8002070BD287800F046F8F1
:1012400000F09AF86D1C2000A4F10104A4B2F4D1BE
:1012500000F07EF800F0ACF8012070BD00B5084A3F
:101260004023536000F0A4F88020106000F0A0F844
:10127000136000F09DF853605DF804EB00F098B83F
:10128000100C014030B5082300220F4C8020C4F818
:10129000100C40250FE05006020EC4F8145C00F05C
:1012A00087F8C4F8105C00F083F8D4F8080C000646
:1012B00001D542F001021800A3F10103DBB2EAD12B
:1012C000C4F8145C104630BD0000014070B5034600
:1012D0000822802640250E4C12E0C4F8145C00F071
:1012E00067F8180602D5C4F8106C01E0C4F8146C55
:1012F0005806030E00F05CF8C4F8105C00F058F8D3
:101300001000A2F10102D2B2E7D1C4F8145C70BDA2
:101310000000014000B50D4A802393604FF040006B
:10132000906000F045F81068A2F60842C2F8143C3C
:1013300000F03EF8D2F8080C000601D5002000BDF0
:10134000C2F8143C00F034F8012000BD080C014044
:1013500010B5084A4023536000F02AF880245460F6
:1013600000F026F8136000F023F81460BDE8104088
:1013700000F01EB8100C014000B50C4A4023D360A9
:1013800000F016F88020906000F012F8936000F0F2
:101390000FF81068A2F60842000603D5C2F8143C04
:1013A000002000BDC2F8143C012000BD080C014023
:1013B0004FF4FA7106E0491E89B20520401E80B242
:1013C0000028FBD10029F6D17047FEE7704708B529
:1013D0004FF4C06000F064F83D208DF8000001205B
:1013E0008DF801008DF802008DF80300684600F0CA
:1013F00028F808BD08B54FF4A06000F051F832207D
:101400008DF8000001208DF801008DF802008DF8A4
:101410000300684600F015F808BD08B54FF4C06039
:1014200000F03EF826208DF8000003208DF8010022
:101430008DF8020001208DF80300684600F001F8E5
:1014400008BDF0B50F24C27801784FF0E0230127E2
:10145000E2B1D3F80C2D02F4E062C2F5E062120AA8
:10146000C2F10405D4404678AE408278224032432F
:101470001201194481F80024007800F01F018F4008
:10148000400903EB8000C0F80071F0BD01F01F00BF
:101490008740480903EB8000C0F88071F0BD000070
:1014A0000249084302490860704700000000FA053D
:1014B0000CED00E07047000070B505460E4614467E
:1014C00035B146B10F48807840B11220207070BD10
:1014D0000420207070BD0C20207070BD2A78012A75
:1014E00008D0022A06D0032A04D0042A02D0012000
:1014F000207070BDFEF748FE6E61FEF749FE0020C9
:10150000207070BD6800002010B500F01BF801F0DD
:10151000F5F801F003F901F013F901F0C3F801F057
:101520009DF801F09FF901F0C5F901F041F901F0D2
:1015300067F900F0ADFE00F00BF8BDE81040FFF7D2
:10154000B9BF0000014900200880704764000020F6
:101550007047000070B5134CE079012821D1FEF7E7
:1015600013FE0546A17809B1491EA170A07898B96B
:10157000E07888B901F0E6F90B48627950F822105A
:10158000A1622079824207D0C86B401CC863E06822
:10159000401CE060FEF714FE2846BDE87040FEF7F0
:1015A000F7BD70BD68000020543100202DE9F047E0
:1015B0000646884691461F4662202EB1B10706D0E6
:1015C00038700020BDE8F08738700020FAE7B8F1E5
:1015D000020F03D25B2038700020F3E7B9F1040F4B
:1015E00003D25C2038700020ECE7FEF7CDFD1249F5
:1015F0000D680DB16A680A60FEF7CAFD2DB1334669
:101600003446A8F10101002007E05A20387000207C
:10161000D8E74C441C602346401C8842F9D3002084
:1016200018602E606E60C5F81080C5F80C80C5F893
:10163000089038702846C5E7A800002070B5044619
:101640000D4674B1FEF7A0FD216971B1666832687C
:101650006260491E2161FEF79BFD00202870304624
:1016600070BD60202870002070BDFEF791FD5D20E8
:101670002870002070BD70B504460D4654B15DB1B0
:10168000FEF782FDD4E90321914207D3FEF780FDE6
:101690005E2070BD602070BD5F2070BD61682960F4
:1016A00065602169491C2161FEF772FD002070BD53
:1016B00070B505460C4635B12878022807D00120C0
:1016C0002070002070BD04202070002070BDFEF747
:1016D0005BFD03466A68D08A70B11169081D10610C
:1016E0000D68D18A491ED1829168884201D1506823
:1016F00010610020207002E01F2020700025184695
:10170000FEF746FD284670BD2DE9F04106468846A5
:101710001A48007810B10020BDE8F081FEF734FDD2
:10172000174F3C680CB161683960FEF731FD14B3A6
:10173000FEF72AFD13490D68BDB12A680A60FEF75D
:1017400027FD6E6006EB8800A860EE602E61A5F8AC
:1017500014800020E88202212170208165600AA0A7
:101760006061204600F070FF05E0396861603C6010
:10177000FEF70EFD00242046CEE700006A000020A0
:1017800078000020AC0000203F0000002DE9F05F51
:1017900004468B4615463CB12078022808D001202B
:1017A00028702046BDE8F09F042028702046F9E705
:1017B0003348007818B10F2028702046F2E7FEF772
:1017C000E3FC0746A07A08B1012600E00026DFF816
:1017D000B490DFF8B4A04FF00008BBF1000F09D0BF
:1017E000BBF1010F2CD03846FEF7D2FC0720287041
:1017F0002046D7E736B13846FEF7CAFC49202870A4
:101800002046CFE721A060616068D9F80010016030
:10181000C9F8000084F80080DAF800006060A4F8DD
:101820000880CAF800403846FEF7B2FC85F8008010
:101830000020B7E7002304221946204600F070FE7E
:10184000A07A0028F6D111A060616068D9F8001074
:101850000160C9F8000084F80080DAF800006060D8
:10186000A4F80880CAF800403846FEF791FC012E23
:1018700001D101F043F885F80080002092E70000D4
:101880006A000020AC000020780000203F0000002B
:1018900010B5044624B12078022803D0012010BDE1
:1018A000042010BDFEF770FC014660684268C2600B
:1018B000426802610022C2820846FEF769FC0020ED
:1018C00010BD00002DE9F0470546894614463DB19C
:1018D0002878022808D0012020700020BDE8F08779
:1018E000042020700020F9E72F48007818B102206A
:1018F00020700020F2E72D48007818B10D202070EC
:101900000020EBE7FEF740FC06466B680027D88A0C
:1019100088B11969081D18610D68D98A491ED982D4
:101920009968884201D1586818613046FEF730FC4A
:1019300027702846D2E7DFF87880D8F8002012F820
:10194000340F40F004001070577042F8049C284691
:1019500000F04EFE3046FEF71BFC00F0CFFFFEF716
:1019600013FC0646D8F8000090F83510A9B10229FA
:1019700016D0294600F010FE00250A202070D8F865
:10198000000000F11C00077647760760476087601B
:101990003046FEF7FDFB2846A0E7456A2770EEE7D4
:1019A00000250E202070EAE76A0000206B0000206E
:1019B0008800002070B504460E4624B12078022825
:1019C00003D0012070BD042070BDFEF7DDFB05468D
:1019D000A07A60B1002304223146204600F0A0FD29
:1019E0002846FEF7D5FB00F089FF002070BD606837
:1019F000C18A828A914204D32846FEF7C9FB1E2081
:101A000070BDC268111DC1601660C18A491CC182C7
:101A1000D0E90221914201D14168C1602846FEF718
:101A2000B7FB002070BD000010B5094CE07901281B
:101A30000CD1FEF7A9FBA17821B9E178FF2901D2E9
:101A4000491CE170BDE81040FEF7A2BB10BD0000CC
:101A50006800002010B5104CE07901281BD1FEF77A
:101A600093FBE17899B1491EC9B2E17019B1BDE8A3
:101A70001040FEF78DBBA17819B1BDE81040FEF70C
:101A800087BBFEF785FBBDE8104000F037BFBDE81F
:101A90001040FEF77DBB10BD6800002070B5054604
:101AA0000D48007808B1002070BDFEF76DFB0B49B2
:101AB0000C680CB162680A60FEF76AFB4CB1032047
:101AC000207025810020606005A06061204600F044
:101AD000BBFD204670BD00006A0000207800002099
:101AE0003F0000002DE9F04704468A4615463CB108
:101AF0002078032808D0012028702046BDE8F08710
:101B0000042028702046F9E72C48007818B10F20EF
:101B100028702046F2E7FEF737FB0746A07A08B1A7
:101B2000012600E00026DFF898904FF00008BAF197
:101B3000000F09D0BAF1010F26D03846FEF728FB76
:101B4000072028702046D9E736B13846FEF720FB3B
:101B5000492028702046D1E71AA0606184F80080EF
:101B6000D9F800006060A4F80880C9F80040384641
:101B7000FEF70EFB85F800800020BFE7002301225E
:101B80001946204600F0CCFCA07A0028F6D10DA022
:101B9000606184F80080D9F800006060A4F80880D3
:101BA000C9F800403846FEF7F3FA012E01D100F0E3
:101BB000A5FE85F800800020A0E700006A00002054
:101BC000780000203F0000002DE9F04705468946D7
:101BD000144635B12878032806D001202070BDE8CE
:101BE000F08704202070FAE72648007810B1022020
:101BF0002070F4E72448007810B10D202070EEE743
:101C0000FEF7C2FA06462889002730B1401E288117
:101C10003046FEF7BDFA2770E1E7DFF87080D8F8AC
:101C2000000010F8341F41F001010170477040F8C6
:101C3000049C284600F0DCFC3046FEF7A9FA00F0D0
:101C40005DFEFEF7A1FA0646D8F8000090F83510C0
:101C500099B1022913D0294600F09EFC0A20207079
:101C6000D8F8000000F11C0007764776076047604F
:101C70003046BDE8F047FEF78BBA2770F0E70E203C
:101C80002070EDE76A0000206B0000208800002033
:101C900070B5044624B12078032803D0012070BD1C
:101CA000042070BDFEF770FA0546A07A60B10023EB
:101CB00001221946204600F033FC2846FEF768FA58
:101CC00000F01CFE002070BD20894FF6FF71884295
:101CD00006D2401C20812846FEF75AFA002070BD2B
:101CE0002846FEF755FA332070BD000010B5094CA8
:101CF000E07900280CD100F025FE607920710649BA
:101D000051F82000A0622062BDE81040FEF743BAFF
:101D100010BD0000680000205431002010B50220E2
:101D200000F0CAF9FEF730FA084C0021E161FEF735
:101D30002FFA0A2000F0C0F9FEF726FAE169616186
:101D400001216170BDE81040FEF722BA6800002052
:101D5000FEF794BD2DE9FE4305460F4690461C460E
:101D60003F2C02D92A20BDE8FE83FEF70DFA1A495E
:101D7000097819B1FEF70CFA3C20F4E7174E56F833
:101D8000241019B1FEF704FA2820ECE7012146F8E7
:101D90002410FEF7FDF9002342463946284600F09C
:101DA000FFF800230146009301931A462046029350
:101DB00000F0D8FD054645B1FEF7E6F9002146F8EA
:101DC0002410FEF7E5F92846CDE7054800780128FC
:101DD000F9D100F093FDF6E76A00002054310020AD
:101DE0006F0000202DE9FE4F8046DDE90CB6109F04
:101DF000894692461C463F2C02D92A20BDE8FE8F18
:101E0000FEF7C2F91D49097819B1FEF7C1F93C2066
:101E1000F4E71B4D55F8241019B1FEF7B9F9282045
:101E2000ECE7012145F82410FEF7B2F93A463046B6
:101E30000E9900F06DFE3B4652464946404600F082
:101E4000AFF8DDE90E128DE8860001465B463246AA
:101E5000204600F087FD064646B1FEF795F90021C1
:101E600045F82410FEF794F93046C7E70548007896
:101E70000128F9D100F042FDF6E700006A000020D9
:101E8000543100206F000020FEF7FBBCFEF7FABCC7
:101E900070B505460E4614463F2D04D9FF2D02D0DD
:101EA0002A20207070BD2EB11448007828B112206D
:101EB000207070BD0C20207070BDFEF765F90246E1
:101EC000FF2D03D10E48006890F836500D4850F8A9
:101ED0002500432540B101280BD006651046FEF7CA
:101EE00057F90020207070BD1046FEF751F925709B
:101EF00070BD1046FEF74CF9257070BD6A000020D9
:101F00008800002054310020FEF7CABC2DE9F041C2
:101F100004460E463F2C04D9FF2C02D02A20BDE8EF
:101F2000F08146B1002030607060FEF72DF9014667
:101F3000FF2C02D005E00920F1E71748006890F86F
:101F40003640164850F8240058B101280ED0028AB5
:101F5000D20710D00024C76885680846FEF718F934
:101F60000FE00846FEF714F94320D8E70846FEF7CD
:101F70000FF94320D3E70846FEF70AF94520CEE7DC
:101F8000641C01CD0028FBD0A0003060381B80000D
:101F900070600020C3E7000088000020543100205A
:101FA0004FF08073136042F8040C083A6FF00100A0
:101FB0001060A2F130004FF01233C3624FF00332D1
:101FC00082624FF0023242624FF001320262C1611E
:101FD0004FF0113181614FF0103141614FF0093103
:101FE00001614FF00831C1604FF0073181604FF05F
:101FF000063141604FF0053140F804194FF00431CB
:102000000160704770B504463F2C04D005D3FF2C07
:1020100003D02A2070BD472070BDFEF7B5F80146F9
:102020002048FF2C06D0006890F83600A04206D168
:10203000012505E0006890F83640012500E0002504
:10204000194850F8240068B1012810D090F83820C1
:10205000164C90F83960A35CF643F6B23340A354B3
:1020600053B110E00846FEF793F8482070BD0846CB
:10207000FEF78EF8432070BD0D4B90F83A201C7887
:1020800024EA02021A7010F8342F42F0080202709B
:102090000846FEF77DF8012D01D100F02FFC00204D
:1020A00070BD000088000020543100209C000020FA
:1020B0006E000020FEF7F5BB70B5044613480078AB
:1020C000002822D11248007800281ED1002C1CD0F4
:1020D000FEF75AF80F49096891F838200E4D91F82B
:1020E0003960AB5CF643F6B23340AB5433B90B4BBB
:1020F00091F83A201D7825EA02021A700C63FEF767
:1021000047F8BDE8704000F0F9BB70BD6A000020E0
:102110006B000020880000209C0000206E00002042
:1021200070B51A4C24780CB1552070BD184C247829
:102130000CB1322070BD10B909B902B91BB13B29ED
:1021400003D9512070BD542070BD3B2A01D95220C3
:1021500070BD4FF47A74A34201D3532070BD5B1D50
:1021600064256B43B3FBF4F34FF461646043C1EB4C
:10217000011100EB8100104400EBC00101EB0010E5
:1021800003EB8000FFF798FF002070BD6A0000207D
:102190006B00002010B5FDF7F7FF03490C68FDF751
:1021A000F7FF204610BD0000980000202DE9F04107
:1021B00000F054F8FDF7E8FF274D296B491C29630F
:1021C000FDF7E6FFE879012843D1687A0126002768
:1021D00048B1012809D0022809D001206F720028D7
:1021E00037D0EC6A31E00120F9E70020F7E7012061
:1021F0006E72F4E7FDF7C8FF216B19B3491E216326
:1022000001BB94F8341011F0370F06D001F0C8016B
:1022100084F8341084F8356001E084F8357094F85F
:10222000341009070ED494F83A10AA791143A97111
:10223000094A94F83810343294F839C0535C43EAB0
:102240000C0353546469FDF7A3FF94F836003F284C
:10225000D0D1BDE8F08100006800002010B5FEF785
:1022600021FB07490888401C80B208800A2805D352
:1022700000200880BDE8104000F004B810BD000048
:102280006400002001480068FFF702BDBC00002088
:1022900038B54FF42071244800F0DAFA4021234881
:1022A00000F0D6FA0020204B00246425411C0A4689
:1022B00089B200EB800003EBC00001EB810103EB6E
:1022C000C101057080F82540C16019A1016290B27A
:1022D0000F28EBD300EB800003EBC000057080F803
:1022E0002540C46012A101621248046012480480B3
:1022F000124910200880124803600120FFF7CEFB2E
:10230000104C20600020FFF7C9FB0F4D28606A4683
:102310000EA12068FFF7D0F86A4611A12868FFF7E0
:10232000CBF800F027F838BD0C3B00208C3E002095
:102330003F000000B4000020B2000020B0000020E8
:10234000C0000020B8000020BC00002075432F4FC3
:10235000532D494920546D724C6F636B000000008F
:1023600075432F4F532D494920546D725369676E41
:10237000616C000000B587B003230022CDE9032380
:102380000A484021CDE901014FF6FD73009300F1A9
:10239000FC023D2300210648FFF724FD06AA05A103
:1023A0003D20FFF775FD07B000BD00008C3D00200B
:1023B0002124000875432F4F532D494920546D7235
:1023C00000000000032280F82520134A012912682A
:1023D00014D08169B1B111444161416901F0070133
:1023E0000E4A02EBC10100230A687AB10860C2609C
:1023F00010618A88521C8A8003617047C169114448
:102400004161EAE7C16911444161E6E70860C360E0
:1024100001228A80F0E70000B40000208C3E0020FA
:1024200008B5DFF86880DFF868901A4E6A46002128
:10243000D8F80000FFF7C8FBFFF7F6FA3068401C39
:10244000306000F0070009EBC0000468022713E0C9
:10245000E5686069316888420DD1204600F01CF8BB
:1024600094F8240002280CD084F82570626812B118
:102470002046A16890472C46002CE9D1FFF7EAFAE4
:10248000D4E701212046FFF79DFFEFE7BC000020C5
:102490008C3E0020B400002010B5416901F0070116
:1024A0000C4A02EBC10100240B68C268834203D1CD
:1024B0000A602AB1146103E00369DA6002B11361B2
:1024C000012280F82520C46004618888401E88802D
:1024D00010BD00008C3E00200F4864210068B0FB56
:1024E000F1F0B0F1807F01D3012010E020F07F41B6
:1024F0004FF0E020491E4161084AF02111704FF071
:10250000000181614FF0070101614FF000000028D8
:1025100000D0FEE7704700005000002023ED00E0EF
:10252000F0B505460F46A87A1849085C2C18E47ADD
:10253000095D01EBC001CEB2154951F826400021DA
:1025400004F12404E1602760217C21EA0201217466
:102550006374A4F1240409070BD40E4994F83A20BB
:102560008B791A438A71343194F839300A5C1A43F2
:102570000A542946204600F00FF8216A19B1204676
:1025800000F01DF8E5613046F0BD00006A780008F3
:10259000543100206800002010B590F8382090F8E1
:1025A00039408B18E443DA7AE4B22240DA72002A26
:1025B00004D18A7A90F83A0082438A7210BD70B5CD
:1025C00010F8385F827843780868DB43D243DCB286
:1025D000D6B209E04319DA7A2240DA7212B9827A65
:1025E00032408272091D08680028F3D170BD0000D6
:1025F00030B5144C216A41F81C0F00F10B020B7F1F
:10260000497F9D5C0D439D54216A827A01F1380116
:102610008B7842EA03028272087804F134034D7821
:102620001A5C6FEA0505EDB202EA0502A1F1380174
:102630001A54002A05D191F83A00A17921EA000044
:10264000A07130BD68000020002282720021431872
:10265000DA72491CC9B20829F9D3704710B5502164
:102660000D4800F0F5F800200B4B0024411C8AB205
:1026700003EB001003EB02120470426007A2C26079
:1026800088B20428F2D303EB00100470446003A165
:10269000C1600348036010BDE43900203F00000022
:1026A000A400002010B54FF4F071114800F0D0F8EC
:1026B00000200F4B0024411C0A4689B200EB400069
:1026C00003EBC00001EB410103EBC1010470416069
:1026D00008A1416190B21328EDD300EB400003EB59
:1026E000C0000470446003A141610348036110BD50
:1026F000F42D00203F000000680000200648002163
:1027000001638170C1700172C171C160C161816179
:10271000416141707047000068000020074B0021B4
:102720009971002003F134021154401CC0B20828F2
:10273000FAD31971597199621962704768000020C3
:1027400010B54FF4F261164800F082F84FF4807132
:10275000144800F07DF80020114B411C0A46C9B214
:1027600000EB400404EBC00003EBC00001EB4104AC
:1027700004EBC10103EBC10141610BA10165D0B2C2
:102780001528EAD300EB400101EBC00003EBC000C9
:102790000021416104A202650448C162436210BD88
:1027A00054320020543100203F0000006800002017
:1027B00000B587B003230022CDE903230A48202176
:1027C000CDE901014FF6FF73009300F17C023F2336
:1027D00000210648FFF706FB06AA05A13F20FFF7E8
:1027E00057FB07B000BD0000D4300020652A000868
:1027F00075432F4F532D49492049646C65000000F3
:1028000000B587B003230022CDE903230A48402105
:10281000CDE901014FF6FE73009300F1FC023E2367
:1028200000210648FFF7DEFA06AA05A13E20FFF7C1
:102830002FFB07B000BD0000D42F0020812A000824
:1028400075432F4F532D4949205374617400000084
:10285000002203E000F8012B491E89B20029F9D1BA
:102860007047000010B578210F48FFF7F1FF0020F6
:102870000D4A00EB400102EBC101401C00EB40039C
:1028800002EBC3034B6009A34B6180B20428F0D371
:1028900000EB400002EBC0000021416003A1416158
:1028A0000348026010BD0000343A00203F000000E1
:1028B000A800002010B560210E48FFF7C9FF0020D6
:1028C0000C4B411C0A4689B200EB400003EBC000F0
:1028D00001EB410103EBC101016090B20328F0D389
:1028E00000EB400003EBC0000021016002480360E0
:1028F00010BD0000AC3A0020AC00002070B5FDF720
:1029000043FC05460D4CA07898B9E07888B900F0F2
:1029100019F80B48627950F82210A162207982429E
:1029200007D0C86B401CC863E068401CE060FDF73E
:1029300042FC2846BDE87040FDF72ABC6800002034
:10294000543100200649054A8879105C01F13403AE
:102950001B5CD25C02EBC000487170476A780008CB
:10296000680000202DE9F05F0546DDE90AAB0E4660
:1029700090469946FDF708FC374F7C6A002C67D0DB
:1029800004F11C0454F8081C7962FDF701FC44F8BA
:102990001C6CA576002626766676666144F818BC1F
:1029A00044F810AC44F8148C0C9824F80C0C24F85F
:1029B0000A9CE677E808207705F00701E176012315
:1029C00003FA00F2A27703FA01F2627726606660EA
:1029D000E660A6602662A6626662E66226631FA0C3
:1029E0006063A4F11C044FF0000004EB80014E650D
:1029F000401CC0B20028F8D02046FFF7A9F92046B5
:102A0000FFF742FAFDF7C0FB0146154840F82540A4
:102A1000F86A6061A66100B18461FC6204F1380467
:102A2000BA79A07840EA0200B8710B4A207802F126
:102A300034026478135C43EA04031354387A00F1D7
:102A4000010038720846FDF7A3FB0020BDE8F09FA7
:102A5000FDF79EFB4220F9E7680000203F000000E0
:102A600054310020054CFDF78FFBE169491CE16101
:102A7000FDF78EFBFFF70AFAF5E70000680000207B
:102A8000144C02E01420FFF717FB60780028F9D0FF
:102A900060696421B0FBF1F06061002518B9257010
:102AA000FF20FFF7AFFAFDF76FFBE169A161E56178
:102AB000FDF76EFBD4E90510B0FBF1F0C0F1640046
:102AC0002070FFF721FA00F007F80A20FFF7F4FA68
:102AD000E9E70000680000207CB500240B4D694642
:102AE0002046FFF713FA58B955F8241041B10129CF
:102AF00006D0D1E9020200EB820088640198C86424
:102B0000641CE4B23F2CEAD97CBD000054310020A3
:102B1000D30707D0920705D5002201E0491E04C063
:102B20000029FBD170470000044A19B151690143E3
:102B300051617047516981435161704700100240F3
:102B4000044A19B1916A014391627047916A8143C5
:102B50009162704700100240044A19B1D1690143E3
:102B6000D1617047D1698143D16170470010024043
:102B7000044A19B191690143916170479169814398
:102B8000916170470010024070B5304B596801F0F8
:102B90000C012F4A41B32F4C042927D0082927D0F4
:102BA0000260596801F0F00109092B4A545C016880
:102BB000E14041605C6804F4E064240A145D21FA99
:102BC00004F484605C6804F46054E40A125DD1404B
:102BD000C1605A6802F44042920B1F4B1B1F9A5C63
:102BE000B1FBF2F1016170BD0260DAE70460D8E781
:102BF000596801F470115A6802F48032890C0D2969
:102C000001D0891C00E00621BAB1DA6A02F48035ED
:102C1000DA6A02F00F02521C9DB1DD6AC5F303159A
:102C20006D1CDE6AC6F30326B61CB4FBF5F47443D0
:102C3000B4FBF2F24A430260B3E7084A5143016031
:102C4000AFE7B4FBF2F24A430260AAE70010024089
:102C500000127A0040787D012D00002000093D001F
:102C6000034600205909094A01290AD002290AD03D
:102C7000516A03F01F02012393400B4200D0012050
:102C800070471168F5E7116AF3E700000010024091
:102C90000149C871704700000010024001490867EF
:102CA0007047000000004242034AD16A21F470419B
:102CB0000143D1627047000000100240704700F0ED
:102CC00001B8000000202B490A6842F480320A60F3
:102CD0004FF4A0630A6802F40032401C0AB998421B
:102CE000F8D10868800301D5012000E00020012808
:102CF0003FD12148026842F010020260026822F0CF
:102D000003020260026842F0020202604868486002
:102D100048684860486840F480604860C86A174A5C
:102D20001040C862C86A164A1043C862086840F07A
:102D30008060086008680001FCD5486820F47C10B9
:102D40004860486840F4E8104860086840F08070C7
:102D5000086008688001FCD5486820F003004860DE
:102D6000486840F0020048604868C0F381000228CB
:102D7000FAD17047001002400020024000F0FEFF30
:102D80004406010010B5FDF7FFF9064A1178491C09
:102D90001170FDF7FDF9FFF709FABDE81040FEF7E5
:102DA000D9BB00006A00002010B51248016841F04C
:102DB000010101604168104A1140416001680F4AF9
:102DC00011400160016821F480210160416821F413
:102DD000FE014160016821F0A05101604FF47F01C4
:102DE00081600021C162FFF76AFF05494FF0006072
:102DF000086010BD001002400000FFF0FFFFF6FE6B
:102E000008ED00E010B50D48002180F83610402292
:102E10004270FF228270C170017141718171002284
:102E20004021032002F07AFE05498862002804D17F
:102E3000BDE8104003A000F01BBB10BDCC3E00203D
:102E4000C80000205442494D5F444C4C5F696E6994
:102E50007428293A72756E206F7574206F66206D24
:102E6000656D6F72792E0A0070B50646284C0025F4
:102E700084F814514FF6FF70A4F81801A4F8165105
:102E800024A000F0F5FA26702574012002F064FDFC
:102E9000606010B920A000F0EBFA002231466068B3
:102EA00002F02AFD0022FF21606802F03DFD24A00F
:102EB00000F0DEFA022002F04FFDA06010B921A060
:102EC00000F0D6FA00223146A06802F015FD00227B
:102ED000FF21A06802F028FD24A000F0C9FA032019
:102EE00002F03AFDE06010B921A000F0C1FA002222
:102EF0003146E06802F000FD0022FF21E06802F0A8
:102F000013FD25A000F0B4FA6570A57070BD000037
:102F100070EC0020310D0A005442494D5F696E6922
:102F20007428293A4552524F522C636F6E6E5F647B
:102F300070206973204E554C4C2E0D0A0000000085
:102F4000320D0A005442494D5F696E697428293A6E
:102F50004552524F522C636F6E6E5F7364702069DE
:102F600073204E554C4C2E0D0A000000330D0A0004
:102F70005442494D5F696E697428293A4552524F4F
:102F8000522C636F6E6E5F7470206973204E554CC7
:102F90004C2E0D0A00000000340D0A00FEB5002082
:102FA0000290124802A9406802F0F4FC00281BD1EC
:102FB0006A4601A9029802F0DBFB019C257866783D
:102FC000A41C324629460AA000F052FA18A000F0CC
:102FD0004FFA0298234631468279284602F036F8A5
:102FE000029802F0D1FB0020FEBD000070EC002032
:102FF0005442494D5F726563765F636D645F616ED5
:10300000645F6578656375746528293A65786563DA
:103010007574696E6720636D64636C6173733D25BD
:10302000642C636D6466756E633D25642E0D0A0025
:103030005442494D5F726563765F636D645F616E94
:10304000645F657865637574650000001CB5FF23D7
:103050008DF8043000238DF805308DF806000093BC
:10306000684602F0ABFB07489DF805309DF8042048
:103070004068694602F0C6FC0446684602F095FBCB
:1030800020461CBD70EC00201CB50446FF208DF8C6
:10309000040000208DF805008DF806400090042201
:1030A000684602F08BFB0B4881684968CC718068E8
:1030B0009DF805309DF804200099406803F021FB3D
:1030C000040002D004A000F0D3F9684602F06DFBC2
:1030D00020461CBD70EC00205442494D5F73656E64
:1030E000645F73747265616D696E675F646174615A
:1030F00028293A73656E6420646174612066616991
:103100006C65642E0D0A000010B5074C01212046A5
:1031100000F064F8002805D02046BDE810400121E9
:1031200000F04CB810BD0000000C00403EB501217D
:103130000820FFF711FD4FF6FF70ADF8040047209F
:10314000ADF800000020ADF806001020ADF8020038
:10315000074C6946204600F057F8012211462046E8
:1031600000F048F80121204600F02BF83EBD000099
:10317000000C00403EB501210820FFF7EDFC4FF6A2
:10318000FF70ADF804004720ADF800000020ADF856
:1031900006001020ADF80200074C6946204600F0FA
:1031A00033F801221146204600F024F80121204680
:1031B00000F007F83EBD0000000C0040C94301824A
:1031C000704721B1018841F00101018070470188F9
:1031D00021F0010101807047808C70470246002079
:1031E000138A0B4092890A40002B02D0002A00D09B
:1031F000012070471AB182890A438281704782890F
:103200008A4382817047000030B502881B4C1C4DF8
:10321000A0420DD0A8420BD0B0F1804F08D0194B7E
:10322000984205D0184B984202D0184B984203D1CF
:1032300022F070034A881A43154B984206D0154B6A
:10324000984203D022F44073CA881A4302808A88C5
:1032500082850A880285A0420AD0A84208D00E4A78
:10326000904205D00D4A904202D00D4A904201D1C1
:10327000097A01860121818230BD0000002C0140C5
:10328000003401400004004000080040000C0040F1
:103290000010004000140040004001400044014084
:1032A0000048014070478A05C9430180704721B139
:1032B000818941F4005181817047818921F4005155
:1032C0008181704730B585B001212120FFF750FC86
:1032D00001214804FFF740FC01210820FDF7A8FE6A
:1032E0002020ADF8100018208DF8130003248DF86D
:1032F00012401A4D04A92846FDF746FE4021ADF8BC
:10330000101004218DF813108DF8124004A92846DE
:10331000FDF73AFE4FF4E13000900020ADF80400D4
:10332000ADF80600ADF80800ADF80C000C20ADF8C3
:103330000A000B4C6946204600F036F84021204632
:10334000FFF7B1FF012240F22551204600F011F8AD
:1033500001212046FFF7ABFF05B030BD001401404E
:10336000004400400246002012880A4200D001209A
:10337000704710B540F66A13C1F3421301F01F0401
:103380000121A140012B07D0022B07D014303AB104
:1033900002680A43026010BD0C30F8E71030F6E70F
:1033A00002688A43026010BD30B585B004460D4600
:1033B000A889208A4CF6FF710840E98801432182E0
:1033C000A0894EF6F3110840A9882A8911436A8919
:1033D00002431143A181A08A4FF6FF410840A98909
:1033E0000143A1826846FFF7CFFB1D48844201D10B
:1033F000039800E00298A189090408D500EBC001F8
:1034000001EB001029684900B0FBF1F007E000EB88
:10341000C00101EB001029688900B0FBF1F06422C3
:10342000B0FBF2F109010B096FF018056B4300EBDB
:103430008300A3891D044FF0320307D503EBC000BE
:10344000B0FBF2F000F00700084306E003EB0010C9
:10345000B0FBF2F000F00F000843208105B030BD52
:1034600000380140C1F3080181807047FEE7000089
:103470000FB4054B10B503A9044A029800F0C2F836
:1034800010BC5DF814FB00006D510008D80100204D
:1034900002E008C8121F08C1002AFAD1704770471D
:1034A000002001E001C1121F002AFBD1704700007B
:1034B0002DE9FF5FDDE90210020DDDF838B00143B0
:1034C0000FD10F9801244AA3012807D000980F9A22
:1034D000C0E90031C0E90242BDE8FF9F6FEA0B017D
:1034E000F4E7A2F2FF3244F61050424315140F984D
:1034F00001280FD0A5EB0B00401C4FF000043D4EFF
:10350000DFF8F490B0F1000AA046C0F1000717DB25
:10351000074615E0CBF10000EFE7F80707D0224699
:10352000334640464946FDF79FF880468946224685
:10353000334620463146FDF797F804460E467F1085
:10354000002FEAD1DDE90201BAF1000F42464B46F5
:1035500002DAFDF789F801E0FCF7A2FE04460E4608
:103560000022264BFDF70AF903D84FF0FF30014641
:1035700007E00022224B20463146FCF7D0FFFDF742
:10358000E4F8102409E0002C0ADB0A220023FCF7EF
:1035900022FF019B30321A55641E50EA0102F2D11B
:1035A000641C019AC4F1110314440F9A012A07D034
:1035B0000122084301D15B450DDD00226D1C0DE0A9
:1035C000084303D1A3EB0B056D1E09E000204FF06B
:1035D000110B0F908BE701DA00226D1E002A86D0B6
:1035E00000980F99C0E90231C0E9004574E7000076
:1035F00030000000000024400000F03F0000F043D5
:103600000000E03F2DE9FF4F95B006469A460F4671
:103610000025F2E1252879D10024761CFB4AA0463A
:10362000012106943378203B01FA03F0104202D0C6
:103630000443761CF6E730782A2811D06FF02F0269
:103640003078A0F13001092915D8069944F0020418
:1036500001EB810102EB41010844761C0690EFE783
:1036600001CF0690002803DA404244F4005406904B
:1036700044F00204761C30782E2817D116F8010F7A
:1036800044F004042A280ED06FF02F023078A0F105
:10369000300109290AD808EB880102EB410100EB4F
:1036A0000108761CF2E757F8048B761C30786C28FA
:1036B0000FD006DC4C2817D068280DD06A2814D10A
:1036C00004E0742810D07A280FD10DE044F40014DF
:1036D0000AE044F4801401E044F44014717881421B
:1036E00002D1761C04F58014761C30788646662854
:1036F0000BD013DC582872D009DC002870D0452884
:10370000F6D04628F4D047281AD195E118E063286E
:1037100031D0642874D0652812D18DE170286ED024
:1037200008DC6728F1D069286AD06E280DD06F2890
:1037300006D1A8E0732827D0752874D0782873D0D4
:103740005246179990476D1C55E1C4F30250022868
:1037500006D003280AD0042801CF0AD005604AE128
:1037600001CF4FEAE571C0E9005144E101CF058086
:1037700041E105703FE101CF8DF8000000208DF898
:103780000100EB46012003E057F804BB4FF0FF3087
:1037900061074FF0000102D40DE009F101018946F3
:1037A00041450FDA8145F8DB1BF809100029F4D1F7
:1037B00008E009F1010189468142FADB1BF8091092
:1037C0000029F6D106985346A0EB09008046214611
:1037D000179A00F094FA284400EB090506E047E048
:1037E0000FE11BF8010B524617999047B9F10109F7
:1037F000F7D2534621464046179AF9E000E039E0F7
:103800000A21C4F302524FF0000B0091022A04D0A7
:1038100001CFC117032A08D009E0FF1D27F00707D1
:10382000F7E8020107E01CE01DE000B2C117042A1E
:1038300001D140B2C117002906DA0A4600214042F0
:1038400061EB02012D2202E0220504D52B228DF826
:103850000420012203E0E20701D02022F7E791468D
:1038600053E00A2110E010204FF0000B00900EE012
:10387000102109E010204FF0000B44F004044FF039
:103880000808009003E008214FF0000B0091C4F3FA
:103890000252022A04D001CF0021032A06D007E0F9
:1038A000FF1D27F00707F7E8020105E080B20021BD
:1038B000042A01D1C0B200214FF00009220724D50B
:1038C000BEF1700F2AD0009B83F0100353EA0B0364
:1038D00009D150EA010206D030228DF804208DF87B
:1038E00005E002229146009B83F0080353EA0B0394
:1038F0000BD150EA010201D1620706D530228DF8C2
:1039000004204FF00109A8F1010841A2BEF1580FAF
:1039100000D044A203920FAA02920FE040228DF839
:1039200004200122DEE75B46009AFCF754FD039B6E
:103930009B5C029AA2F101020292137050EA01020A
:10394000F1D1029807A9A1EB000000F1200B60075C
:1039500002D524F4803401E04FF0010800204146F4
:103960005A46D84501DDA1EB020000EB0B010090A7
:1039700006984944A0EB01000690E00306D45346A4
:103980002146179A069800F0BAF90544002008E08D
:1039900001A8524610F80800179990476D1C08F1CD
:1039A000010080464845F3DBE0030CD55346214631
:1039B000179A069800F0A3F9054404E03020524617
:1039C000179990476D1C0099481E00900029F5DC5E
:1039D00008E00298029952460078491C0291179912
:1039E00090476D1CBBF10001ABF1010BF1DC67E10D
:1039F00000F072F9054406F10106307800287FF4E2
:103A000009AE19B02846BDE8F08F00000928010072
:103A10003031323334353637383941424344454604
:103A200000000000303132333435363738396162C6
:103A30006364656600000000600701D44FF006086B
:103A400007F1070727F00707A0A1F7E8020C0CF021
:103A500000431A0007D19EA1220504D49DA1E207CC
:103A600001D1AFF2440112912CF0004C7146BEF12D
:103A7000650F0ED007DC45290BD0462920D0BEF1BA
:103A8000470F3DD13DE066291AD0BEF1670F37D10F
:103A900037E0002311224146B8F1110F00DA4A1C29
:103AA000CDE900230246634607A902A8FFF700FDFF
:103AB000012000904FF0000B08F10109039868E025
:103AC0004FF000410F910123CDE900830246634688
:103AD00007A902A8FFF7ECFCDDE904904FF0000B0A
:103AE00020B9039908F1010001EB0009B8EB0900C6
:103AF00003D4C0F1FF3B08F10109A9EB08000090D5
:103B000048E04146B8F1010F01DA0121884600235F
:103B10001122B8F1110F00DC0A46CDE9002302465C
:103B2000634607A902A8FFF7C3FC4FF0000BC1468C
:103B300020070FD40499414503DA894601E0A9F131
:103B40000109B9F1010F05DD0299A9F10100085C35
:103B50003028F4D00399414502DA11F1040F03DA59
:103B600001200F91009015E0002903DC8B44A9EBA4
:103B7000010005E0481C484503DD039800F1010001
:103B800081460399A1EB0B0000F1010000904FF07A
:103B900000400F90200705D40098484502DB4FF005
:103BA000FF30009000210F980DF147088DF8471065
:103BB000B0F1004F26D0022001902B2013900F98D7
:103BC00000280CDA40420F902D20139007E00A21C4
:103BD0000F98FCF7EAFB30310F9008F8011D0199AE
:103BE000481E01900029F2DC0F980028EFD1A8F1BF
:103BF000010213991170317801F0200141F0450163
:103C000008F8021D10A9A1EB080000F107000190BF
:103C10001298007800B1012000EB0901009801EB37
:103C2000E071019801440698A0EB0100A0F10100A9
:103C30000690E00306D453462146179A069800F0F2
:103C40005EF805441298007820B1524617999047C3
:103C500005F10105E00322D553462146179A06983F
:103C600000F04DF805441AE0BBF1000F07DB0499A2
:103C7000594504DD029911F80B00179901E01799D5
:103C800030205246904700986D1C401E0BF1010BEE
:103C9000009004D12E205246179990476D1CB9F11F
:103CA0000001A9F10109DFDC05E018F8010B52461B
:103CB000179990476D1C0199481E01900029F4DC6A
:103CC00053462146179A069892E600002D00000000
:103CD0002B000000200000002DE9F04104460025E3
:103CE00017461E46880405D406E039462020B04712
:103CF00005F10105641EF8D52846BDE8F0812DE9DF
:103D0000F04104460025302790461E46C80300D4E3
:103D10002027880405D506E041463846B04705F11E
:103D20000105641EF8D52846BDE8F08170B505464A
:103D30000E461446082001F089FB002343600670FC
:103D40004470024901EBC501486070BD5CF0002081
:103D500070B50D4640890324C00700D10224062017
:103D600001F0BAFC48B1048144810021016000F1F6
:103D7000100141602860002070BD03A0FFF778FBB0
:103D80006FF0040070BD00006164645F7061645F87
:103D90007062756628293A616C6C6F632062756683
:103DA0005F706164206661696C65640D0A000000E3
:103DB00070B50D4640890324C00700D102240620B7
:103DC00001F08AFC48B1048144810021016000F1C6
:103DD000100141602860002070BD03A0FFF748FB80
:103DE0006FF0040070BD00006164645F7061645F27
:103DF0007062756628293A616C6C6F632062756623
:103E00005F706164206661696C65640D0A00000082
:103E100001207047012070477047000010B5002056
:103E200002F0E8FF02490862BDE81040FFF77EB9E2
:103E300000000020704770B50E4615785478314662
:103E400022462846FFF772FF281922463146BDE870
:103E50007040FFF76BBF30B501EBD174631024F0F5
:103E600001054D1B6110415C1DB141EA0211C154B5
:103E700030BD02F00F021143C15430BD704770478E
:103E800010B50446216891F9080010F1080F01DA15
:103E900020711CE0FD2020714868C0B1097801291B
:103EA00004D0022908D0032911D10BE0627A217ACB
:103EB00000F0AEF820710AE0627A217A02F07CFA12
:103EC000207104E0627A217A03F060F820712068A2
:103ED000C068BDE8104002F08FBF10B504462168ED
:103EE000486870B1097801290ED0022912D003293F
:103EF00016D0FD2020712068C068BDE8104002F097
:103F00007BBFF7202071F6E7627A217A00F096F8FD
:103F10002071F0E7627A217A02F064FA2071EAE710
:103F2000627A217A03F052F82071E4E710B5044672
:103F300001F068F92073A068BDE8104002F05CBF92
:103F400010B50446002020712068406810B9204652
:103F500001F03CFF2068C068BDE8104002F04CBF93
:103F600010B50446206890F9081011F1080F01DA25
:103F7000217136E0F6212171416829B300780128CA
:103F800004D002280FD003282BD11EE0A06880792E
:103F9000C871A0684379027901682068406800F020
:103FA00046FA20711DE012A0FFF762FA2168A068AE
:103FB00049688079C871A0684379027901682068EE
:103FC000406802F09EFB20710BE0A0688079C87108
:103FD000A0680021437902792068406803F023F942
:103FE00020712068C068BDE8104002F005BF0000E5
:103FF000646F5F73656E6428293A73736E70207402
:1040000068726561642073656E642E0D0A0000009D
:1040100070B50024084E33681D4604E0834201D188
:10402000012402E01B68002BF8D14171C2710CB968
:1040300005603060002070BDC400002081710272F4
:10404000017941F001010171074B19680A4604E04A
:10405000814201D10020704709680029F8D102602F
:104060001860002070470000C40000202DE9FE4FBA
:104070000546DFF8D4B1DBF80000B8B16C682078F1
:1040800080086FF00208062819D0002817D00428ED
:1040900015D0052813D06DA0FFF7EAF9284601F0E6
:1040A000FFFD02F07AFC4046BDE8FE8F77A0FFF7E7
:1040B000DFF9284601F0F4FD6FF00300F4E76078C3
:1040C0000121B1EB101F09D07FA0FFF7D1F92846DD
:1040D00001F0E6FD02F061FC4046E5E7608801067C
:1040E000090C41EA1026F00701D0761CB6B22889E7
:1040F000B0420CD283A0FFF7BBF92A8931468CA0CD
:10410000FFF7B6F9284601F0CBFD4046CCE7A019F1
:1041100030F8020CA0F57F41FF390CD03146204623
:1041200001F079F838B18EA0FFF7A2F9284601F026
:10413000B7FD4046B8E73146284601F010FEA11D04
:10414000201DFFF765FE30B34FF0000A0126A0885E
:104150000106090C41EA10210F0A010241EA102070
:10416000C0B20290E0880106090C41EA10210C0A55
:10417000010241EA102000F0FF096FF00901284612
:1041800001F0BCFD78B17EA0FFF772F9284601F07E
:1041900087FD404688E783A0FFF76AF9284601F0CB
:1041A0007FFD404680E7204601F092F8F0B1DBF851
:1041B00000400EE0D4F80CC0BCF1000F08D000267F
:1041C000029ACDE900293B462A4621462069E0476C
:1041D0002468002CEED13EB17AA0FFF749F92846B9
:1041E00001F05EFD40465FE700205DE7DBF8001070
:1041F00009E04879A04205D18879B84202D14FF050
:10420000010A02E009680029F3D1BAF1000F0AD0CF
:10421000CC6884B1029ACDE900293B462A46086958
:10422000A047002040E76EA0FFF722F9284601F0E2
:1042300037FD404638E770A0FFF71AF9284601F02D
:104240002FFD404630E70000C400002064705F6925
:104250006E70757428293A206470207061636B65F4
:10426000742064726F707065642064756520746F6B
:10427000206261642070726F746F636F6C20696478
:10428000656E7469666965722E0D0A0064705F69F7
:104290006E70757428293A2064656C6574652064B5
:1042A0007020646174612062656361757365207458
:1042B00068652064705F706362206973204E554C9E
:1042C0004C2E0D0A0000000064705F696E707574FA
:1042D00028293A6470207061636B65742064726F82
:1042E000707065642064756520746F20626164205D
:1042F00070726F746F636F6C2076657273696F6E26
:104300002E0D0A0064705F696E70757428293A6416
:1043100070207061636B6574206973206C6F6E67C9
:104320006572207468616E20706275662E0D0A00D9
:1043300064705F696E70757428293A64705F646197
:1043400074615F7061645F6C656E3D25642C702DD7
:104350003E746F745F6C656E3D25642E0D0A00001F
:1043600064705F696E70757428293A636865636B61
:1043700073756D206661696C65642E0A000000002B
:1043800064705F696E70757428293A706275662072
:10439000686561646572206661696C65642E0D0AEA
:1043A0000000000064705F696E70757428293A64BB
:1043B000702061646472657373206572726F722E0F
:1043C0000A00000064705F696E70757428293A20D5
:1043D00064656C65746520706275662E0D0A000058
:1043E00064705F696E70757428293A20686572651B
:1043F00031330D0A0000000064705F696E707574DF
:1044000028293A206865726531342E0D0A000000B3
:1044100010B5002001F060F904461CB114212046BB
:10442000FBF732FF204610BDC16002617047F8B54E
:1044300004460D4616461F46607900F0EFFE03461F
:104440003BB100933B4632462946204600F004F833
:10445000F8BD6FF00600F8BD2DE9F84F80460C4618
:1044600092469B460A21204601F048FCA0B100225A
:104470000A21032001F052FB054635B1208960B1C5
:104480002146284601F002FC07E035A0FEF7F0FFC8
:104490006FF00400BDE8F88F25464FF000090027B3
:1044A000009769462046FFF753FC50B137A0FEF74E
:1044B000DFFFAC4202D0284601F0F2FB6FF00200B1
:1044C000E8E700984189C90703D0406800F8017BFC
:1044D00000E04068AC4205D1009A618952891144DC
:1044E0008EB206E0698962891144009A52891144AA
:1044F0008EB24FF6FF7101802846009901F0C6FB8D
:1045000068681821017010214170310241EA1621BA
:10451000418098F8071098F8052041EA02210A0224
:1045200042EA112181804BEA0A210A0242EA112162
:10453000C180A0F808900A9840F6060352468668A3
:104540002946B04706460620009901F0D7F80097A3
:104550002760A54202D0284601F0A2FB304699E729
:1045600064705F73656E64746F5F696628293A636F
:104570006F756C64206E6F7420616C6C6F63617416
:1045800065206865616465722E0D0A0064705F7352
:10459000656E64746F5F696628293A61646420708F
:1045A00061645F70627566206661696C65640D0A9E
:1045B0000000000070477047704770470120704747
:1045C0002DE9F041064640210022032001F0A6FA21
:1045D0000546EDB36B680022214884186178995430
:1045E00094F830109C18A171521CD2B2062AF4D350
:1045F0004FF40271998100279F73DF731F746C68F9
:1046000011340421217090F83B00607000F0ECFD43
:10461000A07000F0EBFDE07000F0EEFD606000F0D7
:10462000E7FDA06000F0E6FDE06068682130002250
:104630008754521CD2B21F2AFAD3F2682946304658
:1046400090470446284601F02BFB2046BDE8F08148
:10465000FFE704A0FEF70CFF6FF00400F6E7000090
:10466000CC3E00206574686263705F646973636F39
:104670007665725F7265706C7928293A72756E2062
:104680006F7574206F66206D656D6F72792E0A00EC
:104690002DE9F041064640210022032001F03EFAB8
:1046A0000446ACB3636800221D49FF208D186F7863
:1046B0009F549D18A871521CD2B2062AF6D3002727
:1046C0009F714FF4027199819F73DF731F74656846
:1046D00011350220287000F091FD0022AB18815C9A
:1046E0005970521CD2B20A2AF8D360681C300022DA
:1046F0008754521CD2B2242AFAD3F268214630469B
:1047000090470546204601F0CBFA2846BDE8F081E7
:10471000FFE704A0FEF7ACFE6FF00400F6E7000030
:10472000CC3E00206574686263705F646973636F78
:104730007665725F7265706C7928293A72756E20A1
:104740006F7574206F66206D656D6F72792E0A002B
:104750002DE9F04780461746384600F0B3F90028A7
:1047600079D0796801F111042078421E122A25D3EC
:1047700014F8041D7BA0FEF77BFE617879A0FEF79C
:1047800077FEA17877A0FEF773FEE278217979A011
:10479000FEF76EFE617980A0FEF76AFEA1797EA029
:1047A000FEF766FEE1797CA0FEF762FE7EA0FEF7D2
:1047B0005FFE3846BDE8F04701F072BA0126894D28
:1047C000092870D009DC884D01281BD0032832D07D
:1047D000052869D0072809D16AE084490B287ED0D2
:1047E0000F287DD011287CD012287BD080A0FEF726
:1047F0003FFE217888A0FEF73BFE3846BDE8F04733
:1048000001F04EBA95F836000028F6D1C879287024
:1048100000200A182B1892795A70401CC0B2062842
:10482000F7D3EE714046FFF733FF0028E5D07EA0B6
:10483000FEF71EFEE1E795F836004FF0000958B18B
:10484000E07A00F027FD0028D7D083A0FEF710FE05
:1048500085F83690D1E783E0601C00F027FD002842
:10486000CBD005F13005E07AE87288F814004FF0FB
:1048700040002870E87A687085F8029085F8039007
:1048800085F8049085F80590A5F13005564800F1AB
:10489000300002F071F84046FFF792FE28B17AA08E
:1048A000FEF7E6FDA9E733E01DE085F83660A4E7F2
:1048B00095F836000028A0D095F8370000289CD144
:1048C000B4F80100010241EA1020A887B4F80300FF
:1048D000010241EA1020E88785F837608DE71CE087
:1048E00025E028E02CE095F83600002885D095F8E2
:1048F0003700002881D095F8380000289AD1888A9E
:1049000005F13805010241EA102028812E7074E774
:10491000641C208868622E706FE70846FEF75CFC16
:104920002861641C2068E86002F02AFB65E7641CCB
:104930002068688061E70846FEF74EFC68615CE726
:10494000641C2068A8616A88811A904203DC4FF6D3
:10495000FF71891A0144E9616869081A28624CE705
:10496000BDE8F087707265762069732025642E0D8E
:104970000A0000006572726F72206D736720636FAA
:1049800064652069732025642C70726576206973D4
:104990002025642E0D0A000061667465722069731B
:1049A0002025642E0D0A00006574686263705F69DB
:1049B0006E70757428293A696E636F7272656374DC
:1049C00020627573206D616E6167656D656E742020
:1049D0006D6573736167657320636F64652E0D0A7F
:1049E00000000000C8000020CC3E0020000C004069
:1049F0006574686263705F696E70757428293A69BE
:104A00006E636F7272656374206263702074797074
:104A1000652E0D0A000000006D73675F636F6465AB
:104A2000203D2025640D0A006574686263705F692B
:104A30006E70757428293A73656E642064697363B7
:104A40006F76657279207265706C79206661696C29
:104A500065642E0D0A0000006574686263705F690A
:104A60006E70757428293A5442494D207265636509
:104A7000697665207468652073616D6520616C6975
:104A800061732E0A000000006574686263705F69DC
:104A90006E70757428293A5442494D2073656E64CE
:104AA0002061737369676E20616C69617320726540
:104AB00073706F6E7365206D7367206661696C65D6
:104AC000642E0A0010B504466168888918B9C87B4D
:104AD00008B9087C10B1FFF771FD08B1012010BDC5
:104AE00004A0FEF7C5FC204601F0DAF801F054FFFF
:104AF000002010BD6574686263705F696E707574C4
:104B00005F636865636B28293A696E636F727265CB
:104B100063742064617461206672616D652E0A00A1
:104B20002DE9F04107460D4690461E460E212846C7
:104B300001F0E4F890B100220E21032000F0EEFF16
:104B4000044624B12946204601F0A0F807E014A04D
:104B5000FEF78EFC6FF00100BDE8F0812C46606826
:104B60004022027080F8018000218170C1700171C3
:104B7000417182713A7DC271017241728172C1725A
:104B8000310241EA16218181FA6821463846904770
:104B90000646AC4202D0204601F082F83046DBE700
:104BA000706275665F68656164657228293A636F33
:104BB000756C64206E6F7420616C6C6F63617465DA
:104BC00020726F6F6D20666F722068656164657218
:104BD0002E0D0A002DE9F84F01214FF4E030FDF7CA
:104BE000A3FF01217D20FDF7C3FF0425ADF8005090
:104BF00003248DF8024018268DF80360DFF87C91BD
:104C000069464846FCF7C0F90620ADF800008DF86B
:104C100002408DF803605A4F69463846FCF7B4F9F4
:104C200043F62010ADF800008DF802408DF80360C7
:104C3000DFF8508169464046FCF7A6F901214FF0A4
:104C40002010FCF7F5F90B20ADF800008DF80240BC
:104C50008DF8035069464846FCF796F92802ADF8EE
:104C600000008DF802408DF8035069464046FCF77D
:104C70008BF9C020ADF800008DF8024014208DF8AB
:104C8000030069464046FCF77FF94FF00808ADF88D
:104C900000808DF802408DF8035069463846FCF7D5
:104CA00073F94FF4F850ADF800008DF802408DF81C
:104CB0000350DFF8D4A069465046FCF765F9E802D6
:104CC000ADF800008DF8024010278DF8037069469A
:104CD0005046FCF759F92803ADF800008DF8024062
:104CE0008DF8037069465046FCF74EF96803ADF83D
:104CF00000008DF802408DF8037069465046FCF7BD
:104D000043F9A801ADF800008DF802408DF803606A
:104D100069464846FCF738F90120ADF800008DF8E7
:104D2000024048268DF80360184F69463846FCF764
:104D30002BF90220ADF800008DF802408DF80360D9
:104D400069463846FCF720F9ADF800508DF802406E
:104D50008DF8036069463846FCF716F9ADF8008017
:104D60008DF802408DF8036069463846FCF70CF96F
:104D7000FCF7BAF8FCF72BFBBDE8F88F0008014000
:104D800000100140000C01400014014000180140D7
:104D900070B504460D4660890E2807D832A0FEF78C
:104DA00067FB204600F07CFF002070BD60688089B2
:104DB0000106090C41EA10206FF00D06B0F5006FF6
:104DC0002FD0A0F5006002380DD0042812D0A0F535
:104DD000F040FE3833D031A0FEF74AFB204600F009
:104DE0005FFF002070BD224605F119012846FFF73C
:104DF000AFFCF6E7344890F83B1034A0FEF738FBE0
:104E00003146204600F07AFF30B13DA0FEF730FB7E
:104E1000204600F045FFE4E729462046FFF726F943
:104E2000DFE73146204600F069FF18B1204600F068
:104E300037FFD6E72946204601F0ECFAD1E73BA040
:104E4000FEF716FB3146204600F058FF18B1204609
:104E500000F026FFC5E73FA0FEF70AFB29462046E3
:104E600002F0CCF8BDE7000065746865726E657489
:104E70005F696E70757428293A7468652065746876
:104E800065726E6574206672616D65206973207449
:104E90006F6F20736D616C6C2E0A0000657468651D
:104EA000726E65745F696E70757428293A696E63F5
:104EB0006F72726563742065746865726E657420C4
:104EC000747970652E0D0A00CC3E0020657468650B
:104ED000726E65745F696E70757428293A20676513
:104EE000742020647020646174612E20746869737A
:104EF000207462696D2069732025640D0A0000002A
:104F000065746865726E65745F696E707574282962
:104F10003A62616420647020646174612064656C2D
:104F20006574652069742E0D0A000000657468655B
:104F3000726E65745F696E70757428293A6765745E
:104F4000207470207479706520646174612C0D0A7E
:104F50000000000065746865726E65745F696E704C
:104F6000757428293A6765742072696768742074BB
:104F70007020646174612C0D0A00000010B50446B5
:104F800014B90EA0FEF774FA042000F095FA90B15F
:104F90002061682184F82010772184F821101149BC
:104FA000A1601149E16004F119010160204600F09F
:104FB000A1F9002010BD6FF0040010BD6574686594
:104FC000726E657469665F696E697428293A6572E4
:104FD000726F722C6E657469663D3D4E554C4C0A7D
:104FE00000000000214B0008B953000870B50446CA
:104FF000FBF7CAF80646204600F0B4F905463046ED
:10500000FBF7C6F86DB16268214628469047044612
:105010002CB105A0FEF72CFA284600F041FE2046F0
:1050200070BD6FF0040070BD65746865726E657464
:1050300069665F696E70757428293A696E70757457
:10504000206572726F722E0D0A0000002DE9F0418A
:1050500006460D46174698463EA0FEF709FA6C1E16
:105060000B2E73D2DFE806F072061423303D4A5748
:1050700064686D00102C07D23B48414650F825204B
:105080003846BDE8F0411047BDE8F04100F0C5B832
:105090000D2C08D234484146443050F8252038467B
:1050A000BDE8F0411047BDE8F04100F0B6B80C2C67
:1050B00006D8424639462846BDE8F04100F04EBFCA
:1050C000BDE8F04100F0A9B80C2C06D8424639469C
:1050D0002846BDE8F04101F027B8BDE8F04100F0F6
:1050E0009CB80C2C06D8424639462846BDE8F0410B
:1050F00002F0DCB9BDE8F04100F08FB80C2C06D806
:10510000424639462846BDE8F04102F0C9B9BDE83B
:10511000F04100F082B8052C06D8424639462846B0
:10512000BDE8F04101F024BCBDE8F04100F075B8E5
:10513000BDE8F04100F09CBF2846BDE8F04101F019
:1051400039B9424639462846FEF775FEBDE8F041BA
:1051500000F063B86578637574652066756E637476
:10516000696F6E0D0A0000003801002070B504461A
:10517000064DE1B22846FEF775F940212846FEF7B4
:10518000F1F80028F9D0204670BD0000004400402E
:1051900001EBD17222F00103C91A5210805C09B1EF
:1051A0000009704700F00F00704700000148007CC4
:1051B0007047000070EC002000B585B0002001F0C1
:1051C00019FE039000208DF81000064800906846F4
:1051D00001F014FC9DF810000028F8D09DF8100094
:1051E00005B000BD2D3F000800F02CBE00F030BE21
:1051F00000F034BE00F038BE00F03CBE00487047FE
:105200002C010020014890F83B007047CC3E002064
:105210007047FFF7DFBC0020704770470146074822
:10522000006803E0027D8A4206D000680028F9D1B8
:10523000034800680028FFD17047000010010020DB
:105240001401002001460748006803E0027D8A42FD
:1052500006D000680028F9D1034800680028FFD173
:10526000704700001001002014010020014607488B
:10527000006803E0027D8A4206D000680028F9D168
:10528000034800680028FFD170470000100100208B
:1052900014010020044991F83B10814201D1012002
:1052A0007047002070470000CC3E002010B5002160
:1052B000064A435C545CA34201D0002010BD491C47
:1052C000C9B20A29F5D3012010BD00002C0100202D
:1052D00001460120002900D000207047014601202E
:1052E000002900D00020704701460120002900D08D
:1052F0000020704770B5062101760021164A441837
:10530000535C6376491CC9B20629F8D340F2DC51DC
:10531000C182FAF739FF064610490222A1F5BF50B3
:10532000FBF724FB0E490422A1F16000FBF7DEFA33
:1053300000240B4D603D05EB04100121FBF7FEFA44
:10534000641CE4B2042CF6D33046FAF721FFBDE822
:105350007040FBF727BD0000F40000203457002008
:10536000743F0020FEB500256846FBF7E5FC009879
:1053700081B2019E0322104600F0D0FB07465FB1C8
:105380003C4607E0628971196068FAF764FF60893A
:1053900005442468002CF5D102984FF000410160CB
:1053A00004484169090603D58021416100218160DB
:1053B0003846FEBD009002402DE9F0410C46002524
:1053C000FAF7E2FE0746FBF70FFB064607E06289A5
:1053D00070196168FAF73FFF608905442468002C62
:1053E000F5D1A8B2FBF738FD3846FAF7D1FE002018
:1053F000BDE8F08100B587B0FAF718FFFCF784F834
:1054000003230022CDE903230B484021CDE901010C
:10541000012300F1FC02002108480093FCF7E2FCA4
:10542000069006AA06A10120FCF732FDFCF75EFCFF
:1054300007B0002000BD0000E4010020870800083C
:105440005374617274205461736B0000F0B50026D0
:10545000154F0B3020F00701144A0FE003688B4210
:105460000BD38B4205D95C1A43184568C3E9004544
:1054700000E04368136002C004E0021D10680028C9
:10548000ECD13046002802D1386808B10020F0BDC8
:10549000064A07481060074A121A22F00702C0E9BC
:1054A000002601203860D7E7E0010020DC01002061
:1054B000A4F10020A0F500202DE9F04160B1C01C4E
:1054C00020F003050C2D00D20C254FF42057BD42CF
:1054D00004D90020BDE8F0810020FBE7264E002122
:1054E000F06801F0B9FB3268B068811AC5F5205C3C
:1054F0003AE05418237AABBB23685B1A0C3BAB42EF
:1055000031D3236805F118085B1A0C3B4FF0010CEE
:10551000434514D30D440C3553194FF0000883F85C
:105520000880D4F80080C3F800805960256084F8B2
:1055300008C01968B94204D0131DCD5001E084F8A9
:1055400008C0844208D1716801E000681044037A01
:105550000BB18842F9D1B060F06801F04DFC04F164
:105560000C00B7E7FFE751588C45C2D8F06801F04E
:1055700043FC0020AEE70000FC00002070B50446AC
:10558000002C19D00D4D2868844215D368688442D8
:1055900012D20021E86801F05FFBA4F10C000021A9
:1055A0000172A968884200D2A86000F069FCE8682E
:1055B000BDE8704001F020BC70BD0000FC00002080
:1055C00010B50C480C4C20F0030020604FF4205222
:1055D000026000214160017200F5205161600123E9
:1055E0000B720A604A60A060012001F003FCE060D9
:1055F00010BD000017630020FC0000202DE9F047DB
:105600000746C91C21F003040C2C00D20C244FF4D3
:1056100020594C4502D90020BDE8F087DFF8B4805E
:10562000D8F80000874203D3D8F804108F4201D382
:105630003846F1E7A7F10C052E1A2868A0EB060AF8
:10564000AAF10C0A544502D94FF00000E4E701D159
:105650003846E1E70021D8F80C0001F0FDFA28688F
:10566000D8F8002081180023087AE0B104F118006E
:10567000504512D830190C301118D8F80840A14202
:1056800001D2C8F808100B722B680B604E602860BE
:105690000968494501D0121D8850D8F80C0001F066
:1056A000ABFB3846B8E7D1F800C030190C30D8F859
:1056B00008408C4202D11118C8F8081011180B725A
:1056C000C1F800C04E60286009684945E5D0121D48
:1056D0008850E2E7FC00002070B50546FAF754FD5B
:1056E000054951F8254014B1226841F82520FAF700
:1056F0004FFD204670BD0000308B002070B5054680
:1057000000290CD00C46FAF73FFD054951F8252039
:10571000226041F82540BDE87040FAF739BD70BD00
:10572000308B0020F0B5104820F0030100200E4B14
:105730000E4C0026333B04F1180543F8206000228C
:1057400009E053F820700F6043F8201034F810700F
:105750003944521C92B235F810709742F1D8401C6F
:1057600080B20C28E9D3F0BD638B00206A79000871
:10577000036833B15B680B600068408910800020CB
:1057800070476FF00100704710B50446002C0BD035
:10579000206818B100F084FA002020602146BDE89E
:1057A00010400420FFF7AABF10BD10B504462068C2
:1057B00008B100F075FA0020206010BD70B50446F5
:1057C0000E461546206808B100F06AFA0021022250
:1057D000084600F0A3F9206050B1466020680581BA
:1057E00020682946458104A0FDF742FE002070BDD7
:1057F0006FF0040070BD0000702D3E6C656E203DA2
:105800002025640D0A00000070B505461820FFF73A
:1058100053FE044694B10026267225706660012D61
:1058200011D0022D11D0032D11D01AA0FDF720FEAA
:1058300021460520FFF762FF002070BD1FA0FDF785
:1058400017FE002070BD022502E0642500E002255D
:10585000002001F0CFFAE06038B1284601F074FA78
:10586000206158B12675204670BD1DA0FDF700FED1
:1058700021460520FFF742FF002070BD1BA0FDF769
:10588000F7FDE06801F0B0FA21460520FFF736FF8A
:10589000002070BD6E6574636F6E6E5F616C6C6FBF
:1058A0006328293A756E6B6E6F776E206E65746330
:1058B0006F6E6E20747970652E0D0A006E657463CC
:1058C0006F6E6E5F616C6C6F6328293A616C6C6FF0
:1058D00063206572726F72204E554C4C2E0D0A007B
:1058E0006572726F72312E0D0A0000006572726F60
:1058F00072322E0D0A00000010B586B00446094829
:10590000019002948DF810108DF8112001A801F07B
:105910005BF894F9081011F1080F00DB207206B053
:1059200010BD0000813E000810B586B0044609484D
:10593000019002948DF810108DF8112001A801F04B
:1059400043F894F9081011F1080F00DB207206B03B
:1059500010BD0000DB3E000810B586B0FFF754FF15
:1059600004469CB10A480190029401A801F02CF869
:1059700060B1E06801F038FA206901F0B1F9214620
:105980000520FFF7BBFE002006B010BD2046FBE758
:10599000413F000810B50C466FF0030284B178B1A6
:1059A00000212160016969B190F9080010F1080F28
:1059B00005DB084601F04AF930B12060002010BD37
:1059C000104610BD104610BD6FF0020010BD000063
:1059D00010B586B004467CB171B1094801900294BB
:1059E000049101A800F0F0FF94F9081011F1080FDC
:1059F00000DB207206B010BD6FF00300FAE7000074
:105A0000613F00082DE9F04106460C4617461D4649
:105A10008CB10BA0FDF72CFD277165712068A27970
:105A2000294643890EA0FDF723FD21463046BDE8F7
:105A3000F041FFF7CDBF6FF00200BDE8F08100003C
:105A40006E6574636F6E6E5F73656E64746F282924
:105A50003A4150492073656E642E0D0A0000000023
:105A60006275662D3E7464636E5F6E756D203D20B9
:105A70002564206275662D3E7462696D5F7464638F
:105A80006E5F6E756D203D2564206275662D3E70DB
:105A90002D3E6C656E203D2025640D0A000000003F
:105AA0002DE9F0410446069F884616461D4615B965
:105AB0000CA0FDF7DDFC0020E07784F8148026615F
:105AC000114E307884F82200401C30706760204608
:105AD000A84710B10020BDE8F081706820607460B4
